:100000000010001003010000D5000000D700000020
:1000100000000000000000000000000000000000E0
:10002000000000000000000000000000D9000000F7
:100030000000000000000000DB000000DD00000008
:10004000DF000000DF00000000000000DF00000013
:1000500075020000DF00000000000000000000004A
:10006000DF000000DF000000DF000000DF00000014
:10007000DF000000DF00000000000000DF000000E3
:100080000000000000000000000000000000000070
:100090000000000000000000000000000000000060
:1000A000DF000000DF000000DF000000DF000000D4
:1000B000DF000000DF000000DF000000DF000000C4
:1000C00094280000000000103404000034040010E4
:1000D000E0030000FEE7FEE7FEE7FEE7FEE7FEE7DF
:1000E000002310B5934203D21C585C500433F9E747
:1000F00010BD00238B4203D200221A500433F9E7CB
:10010000704710B50D4C0E4B9C4206D220686168BA
:10011000A268FFF7E5FF0C34F5E70A4B9C4205D2D5
:1001200020686168FFF7E5FF0834F6E700F090FF0C
:1001300001F0F2FA00F05AF8FEE7C046C0000000F5
:10014000CC000000D4000000F7B5224C224D2178ED
:100150002248691800F008FF2E1C002839D02178A9
:100160006B5C4A1C0A2B04D02B783E2B14D101293E
:1001700012D10027D2B2311C1948AF54227000F0BE
:10018000BEFF6B46DD1D1223281C311C2B7000F0B6
:10019000FBFA2878217816E0124B00201B5E002B1A
:1001A00015DD013B994212D10027D2B20C480E490D
:1001B0002270AF5400F07AF8311C2278084800F021
:1001C0009EFF0C20217800F0B7FB2770BDE722705E
:1001D000BBE7F7BD490500104804001034040010C7
:1001E00000400640F2070010A01C000010B500F00F
:1001F00069F88023154916480122DB0000F094FEBF
:100200001448154900F052F8FFF79EFF134C23786D
:10021000002B16D00F48124900F048F82378DB076E
:1002200003D50C480F4900F041F823789B0703D50C
:1002300008480D4900F03AF806480C4900F036F835
:10024000FEE70B4A136801331360DDE71408001062
:100250003404001000400640B41C000048050010A3
:10026000C41C0000C91C0000D71C0000B11C000009
:100270004C05001013B50124094B9A6822420DD099
:100280006A465B69D11D07480B7000F055FE0028D7
:10029000F1D1054A137823431370ECE713BDC04630
:1002A00000800640340400104805001038B5051CD5
:1002B000081C0C1C01F04AFB211C021C281C00F02D
:1002C0001EFF38BDF8B5022000F08CFE002000F0C3
:1002D00059FD002000F04CFD494B80201A69012295
:1002E0001A6100F06DFE2423464C8020A36000F0CC
:1002F00079FE231C0124DA682242FBD0A025414B61
:100300002D069C67032000F03DFD00F029FD281C10
:1003100000F000FE802280219201AB5889020B433D
:10032000AB508022384F6C74FB6F384D1B031B0B96
:100330001343FB67364B281C1C6000F08DFE2B68B6
:10034000344AE1201340042213432B60211C400354
:1003500000F0A6FDE121281C490200F0E2FE082081
:100360002B682D4A2D49134023432B606B682C4A80
:100370002C4E1340473AFF3A6B608B58DB05DB0D80
:1003800023438B508B58DB05DB0D03438B50002040
:100390000B2100F001FE201C022100F0FDFD301CAD
:1003A00000F05AFE33681B4AE12013400422134335
:1003B0003360211C400300F073FDE121301C490231
:1003C00000F0AFFE3368144A11201340234333601A
:1003D0007368134A0C211340736000F0DDFD122096
:1003E0000D2100F0D9FDFA6F0F4B281C134010228D
:1003F000FB670E4BF4600E491A60FFF757FFF8BD1C
:100400000000044000800440048004400040064096
:100410009480044001DA00007CDA000000C0004053
:1004200006030000008006407FFF0F0000E100E0AF
:10043000F01C0000F0B5314C85B03149201C01F0B2
:100440007DFA3049201C01F00DFA201C2E4901F0E4
:1004500009FA2E4E2E4B751CF6180023EB56002B76
:1004600026D02C496F1C201C01F0FCF9391C201CE3
:1004700001F0F8F92849201C01F0F4F9391C201C7E
:1004800001F0F0F92549201C01F0ECF900200A22C6
:1004900001A9285601F07CF901A9201C01F0E2F91C
:1004A0001F49201C01F0DEF9201C1E4901F0DAF979
:1004B0002A35B542D1D11C49201C01F0D3F91B4982
:1004C000201C01F0CFF9201C01F040FA184B984293
:1004D00004D918481849FFF7E9FEFEE7174801F06C
:1004E00035FA051C1648673001F030FA4519201C12
:1004F00001F02CFA281805B0F0BDC046140C00100D
:100500004C1D0000FE1C00000F1D00007A050010AD
:1005100077020000241D00004E1D0000511D000048
:100520002A1E0000541D0000591D0000761D000009
:10053000E7030000004006408E1D000088210000F7
:100540008826000070B5124E0024311C01F032FAEA
:10055000051C002D1AD0012C10D1281C0D4901F0CA
:10056000A9F9002802D10C4B187007E0281C0B4990
:1005700001F0A0F9002801D1074B1C700020311CAC
:1005800001F018FA0134051CE4B2E2E770BDC04680
:100590004C1D00009C1D0000640500109E1D000005
:1005A000F0B589B002912F490024171C01F002FA1E
:1005B000251C061C2B4B01940393002E1DD0022DED
:1005C00009D0032D0CD0012D0FD1301C01F09EF865
:1005D000029B187009E0301C01F098F8388004E0A4
:1005E000301C01F0B3F9019684B20020039901F0A8
:1005F000E1F90135061CEDB2DFE70198FFF7A2FF34
:1006000019481A49FFF752FE029B0A22187805A9D9
:1006100001F0BEF805A91448FFF748FE1248144936
:10062000FFF744FE0A2205A90023F85E01F0B0F8A6
:1006300005A90D48FFF73AFE0B480E49FFF736FEB5
:100640000A2205A9201C01F0A3F805A90648FFF716
:100650002DFE05480849FFF729FE3888041B3C8019
:1006600009B0F0BDAB1D000000400640AE1D00000B
:10067000B61D0000D31D0000D91D000038B5204D67
:10068000041C281C01F062F9291C421E201C01F0E8
:1006900083F8002806D1211C1A480C3101F04EF9CC
:1006A00005232AE0184D281C01F050F9291C421E90
:1006B000201C01F071F8062300281ED0134D281CC1
:1006C00001F044F9291C421E201C01F065F80028A5
:1006D00006D1211C0E480D3101F030F907230CE042
:1006E0000C4D281C01F032F9291C421E201C01F07F
:1006F00053F81223002800D10A3B181C38BDC0460D
:10070000F01D000065050010FC1D0000091E000022
:1007100050050010161E0000F8B5174901F04AF9FF
:100720000025041C154E3778002C21D0022D0AD04C
:10073000032D15D1201C00F0E9FF2A237B43104A2A
:10074000D31858700CE0201C01F000F92A237B43D9
:100750000B4A611CD3180233821E181C01F044F8A6
:100760000020084901F026F90135041CEDB2DBE751
:10077000337801333370F8BD241E0000F0070010F9
:100780007A050010281E0000122370B503700B7844
:10079000051C0C1C2B2B30D1534E301C01F0D6F80D
:1007A000311C421E201C00F0F7FF002806D1201C3F
:1007B0004E494F4AFFF7F4FE04232AE04D4E301C09
:1007C00001F0C4F8311C421E201C00F0E5FF002897
:1007D00004D1201CFFF752FF287084E0464D281CEE
:1007E00001F0B4F8291C421E201C00F0D5FF00289F
:1007F00079D1201CFFF790FF75E0081C01F0A6F8E6
:10080000042808D1201C3D4901F054F800286AD181
:1008100009232B7067E0201C01F098F80B2807D102
:10082000201C374901F046F80F230028F1D05AE088
:10083000661C301C334901F03DF80A230028E8D03B
:10084000301C314901F036F80B230028E1D0201C80
:100850002E4901F02FF80D230028DAD0201C2C4956
:1008600001F028F8002805D12A482B49FFF71EFD82
:100870000E23CEE7201C294901F01CF80323002891
:10088000C7D0201C264901F015F801230028C0D04C
:10089000201C244901F00EF800230028B9D0201CA8
:1008A000214901F007F810230028B2D01F4E301C58
:1008B00001F04CF8311C421E201C00F06DFF11238A
:1008C0000028A6D00C232B70094B00229B5E002B26
:1008D00009D1201C164900F0EDFF002803D00D4877
:1008E0001449FFF7E3FC70BD2C1E000079050010D1
:1008F000F2070010311E0000381E0000651E0000C7
:100900003F1E00004B1E0000561E0000601E00002F
:100910006A1E0000004006406F1E0000821E00009C
:10092000901E0000A21E00004E1D0000AA1E000026
:10093000B11C0000AF1E0000F0B5041C85B00E1CF9
:10094000CE4D0B2805D1CE48CE49FFF7AFFC07238B
:100950002B7028780138122800D9F3E100F0ECFB65
:100960001300210034003D0046002A004B005000D7
:10097000460046004600B900040143017C01F20133
:10098000F201F201D801002C02D1BF48BF499DE01D
:10099000092C00D0D6E1BC48BD49FFF787FC0223F3
:1009A000CFE1092C00D0CDE1B748BA49FFF77EFC72
:1009B0000623C6E1092C00D0C4E1B348B649FFF7CD
:1009C00075FC03232B7002E0092C00D0BAE1AE487D
:1009D000B249FFF76BFC0423B3E1092C00D0B1E16D
:1009E000A948AF49FFF762FC0523AAE10723092CB8
:1009F00000D0A7E1A5E10823042C00D0A2E1A0E1EA
:100A00000C2C61D1A74B19880AB2002A00DC99E1AD
:100A1000891B89B2198000294FD19948A249FFF753
:100A200045FCA24BA24E1B78A24C9548002B31D11D
:100A3000A149FFF73BFCA14F9348391CFFF736FC57
:100A4000391C8F48FFF732FC0A2201A9307800F0E8
:100A50009FFE01A98C48FFF729FC01A98848FFF7F0
:100A600025FC974E8848311CFFF720FC311C844838
:100A7000FFF71CFC934800F069FF01A90A2200F06F
:100A800087FE01A98048FFF711FC7D4801A9FFF707
:100A90000DFC54E08C49FFF709FC7B488B49FFF7BC
:100AA00005FC01A90A22307800F072FE764801A9FF
:100AB000FFF7FCFB7448211C40E109B2002900DB70
:100AC00040E16F48824940E06D488249FFF7EEFB04
:100AD00038E1092C3DD16A487F49FFF7E7FB774CA5
:100AE0006948211CFFF7E2FB211C6548FFF7DEFB8C
:100AF0006F4B0A22187801A900F04AFE624801A94A
:100B0000FFF7D4FB5E4801A9FFF7D0FB6C4C5E48B1
:100B1000211CFFF7CBFB211C5948FFF7C7FB694895
:100B200000F014FF0A2201A900F032FE564801A984
:100B3000FFF7BCFB524801A9FFF7B8FB5D4C5248D8
:100B4000211CFFF7B3FB211C4D48FFF7AFFB0D2322
:100B5000F7E00F2C02D14A486049DDE00D2C00D0AF
:100B6000F0E047485E49B1E7092C02D144485D49AD
:100B7000ACE7102C06D142485B49FFF797FB42488F
:100B80005049A3E70F2C02D13D4858499EE70D2C50
:100B900000D0D7E056493A48FFF788FBFFF74AFCF8
:100BA00039484649FFF782FB414B0A22187801A9D0
:100BB00000F0EEFD344801A9FFF778FB40493248C8
:100BC000FFF774FB4B4800F0C1FE0A2201A900F0B8
:100BD000DFFD2D4801A9FFF769FB2B483549FFF7D9
:100BE00065FB0E23ADE0092C02D1254842496DE793
:100BF000102C06D122484149FFF758FB22483D49B5
:100C000064E70D2C00D09DE01D483D49FFF74EFBE9
:100C10001D482A49FFF74AFB254B0A22187801A9EB
:100C200000F0B6FD184801A9FFF740FB244916481B
:100C3000FFF73CFB3348673000F088FE0A2201A929
:100C400000F0A6FD104801A9FFF730FB0E48194936
:100C5000FFF72CFB0F2374E0092C02D108482A4926
:100C600034E7102C6ED106482849FFF71FFB2549B1
:100C700005486731FFF71AFB132362E000000010FC
:100C800000400640C51E000000800640EA1E00002D
:100C9000F11E0000FF1E0000131F0000201F0000B7
:100CA0002B1F0000F2070010361F00006405001023
:100CB00079050010B11C0000491F0000551F0000FD
:100CC000611F000088210000631F00007C1F0000DE
:100CD000891F00009B1F0000AC1F0000D31F0000F5
:100CE000FA1F000022200000412000006B200000BD
:100CF00082200000140C0010A6200000C920000073
:100D0000F320000088260000172100003A2100008F
:100D10000D2C17D10C480D49FFF7C8FA0C480D49A6
:100D2000FFF7C4FA0C4B01A918780A2200F030FD35
:100D3000074801A9FFF7BAFA05480849FFF7B6FACC
:100D40000A232B7005B0F0BD00400640642100006E
:100D5000008006407C1F000079050010B11C0000D7
:100D600008B500F06DF8014B186008BD10080010C0
:100D70000022034B18645A6401325A647047C0461B
:100D8000008004400022034B18675A6701325A67FB
:100D90007047C0460080044008B5074B596A1F23BE
:100DA000CA05120F1940054B920001314900D05875
:100DB00000F0CCF908BDC0460080044000270000C8
:100DC000084B1A6C03231340012B06D0032B06D0CB
:100DD0000020002B05D1044803E0044B00E0044B45
:100DE0001868704700800440001BB700E81C000032
:100DF000EC1C0000044B10B59C68FFF7E1FF1F23BB
:100E000023400133584310BD0080044008B50A4B0D
:100E10001A6F03231340022B06D0032B07D0012B9C
:100E200008D1FFF7CDFF06E0FFF7B6FF03E0FFF7BD
:100E3000E1FF00E0014808BD00800440001BB7004E
:100E400008B5FFF7E3FF034B996FC9B200F07EF9D5
:100E500008BDC0460080044038B50020FF240D4B7B
:100E60001D682540854213D0FFF7D0FF291C00F0F4
:100E70006DF9094B1A681440FF2C09D1074B010E7C
:100E80001A6800021440621CFF32002300F0F0F9DF
:100E900038BDC04694800440F0800440F480044093
:100EA000F8B5051C0F1CFFF7B1FF291C061C00F04C
:100EB0004DF9011E00D10131FF24081C104B2040C8
:100EC0001860104A1048002F15D057680F4B3B4050
:100ED000042753605368DB04DB0C3B43536004601E
:100EE000301C00F033F9291C000200F02FF9084BE8
:100EF00004401C6000E00760FFF7AEFFF8BDC0468D
:100F00009480044000800440F0800440FB1F0000F7
:100F1000F48004404021034AD36F1B031B0B0B4397
:100F2000D3677047048004404360002301608260FF
:100F30000361C3600120704738B5041CC2680568AE
:100F400063680069121A00209A420CDAE068013BDB
:100F50001840A368A2684343E81800F045FC01204C
:100F6000E3680133E36038BD38B5C5680369041C24
:100F7000026800209D420ED06368081C2169013B75
:100F80000B40A1684B43D118A26800F02DFC012052
:100F900023690133236138BD0F2310B5FF240340BB
:100FA000DB009C40054A00098000801802689940D7
:100FB000A243131C0B43036010BDC04600C0004099
:100FC0008E22054992008B581843044B1840044B5D
:100FD000184388507047C04600800440EF800000EE
:100FE000106D00008E2110B5054C89006358054A2C
:100FF000134002409343044A1343635010BDC0465C
:1010000000800440EF800000106D000010B5022049
:10101000FFF7E8FF0020FFF7ABFE0B4B80201A69BB
:1010200001221A61FFF7CCFF4123084C8020A36006
:10103000FFF7D8FF0123E2681A42FBD0034A0320DE
:101040009367FFF79FFE10BD00000440008004403E
:1010500008B5FFF7DBFF08BD70B51A4C0E21A042A2
:1010600005D0194BC1184A4251411023591A012683
:101070008E40164D164BEA6F1203120B3243EA678D
:10108000A04208D15968134A0A405A605A68082198
:10109000D204D20C12E0104A5968904207D10F4A8C
:1010A0000A405A605A681021D204D20C06E00C4A59
:1010B0000A4020215A605A68D204D20C0A435A606E
:1010C00070BDC046004006400080F9BF0480044067
:1010D00000800440F71F000000800640EF1F000062
:1010E000DF1F0000002310B5934206DA846864070E
:1010F00003D5CC5C0133C461F6E7181C10BDF8B50C
:10110000071C0E1C141C0025002C08DD311C221CA1
:10111000381CFFF7E7FF241A2D183618F4E7281CAF
:10112000F8BD38B50C1C051CFFF796FE210100F038
:101130000DF80138286238BD03B4714649084000F3
:101140004900095A49008E4403BC704700224308F5
:101150008B4274D303098B425FD3030A8B4244D37F
:10116000030B8B4228D3030C8B420DD3FF220902C1
:1011700012BA030C8B4202D31212090265D0030B80
:101180008B4219D300E0090AC30B8B4201D3CB0376
:10119000C01A5241830B8B4201D38B03C01A5241B8
:1011A000430B8B4201D34B03C01A5241030B8B42BA
:1011B00001D30B03C01A5241C30A8B4201D3CB02A5
:1011C000C01A5241830A8B4201D38B02C01A52418A
:1011D000430A8B4201D34B02C01A5241030A8B428D
:1011E00001D30B02C01A5241CDD2C3098B4201D3A5
:1011F000CB01C01A524183098B4201D38B01C01A23
:10120000524143098B4201D34B01C01A5241030999
:101210008B4201D30B01C01A5241C3088B4201D348
:10122000CB00C01A524183088B4201D38B00C01AF5
:10123000524143088B4201D34B00C01A5241411A1C
:1012400000D20146524110467047FFE701B5002029
:1012500000F00CF802BDC0460029F7D003B5FFF737
:1012600075FF0EBC4243891A1847C0467047C046F6
:10127000002B11D1002A0FD1002900D1002802D063
:101280000021C943081C07B4024802A1401802907B
:1012900003BDC046D9FFFFFF03B4684601B50298FD
:1012A00000F022F8019B9E4602B00CBC7047C0467D
:1012B000F0B583B0161C1F1C0090019100F058F887
:1012C000041C0D1C221C2B1C301C391C00F026F8A1
:1012D000009A019B121A8B410899201C0A604B60EE
:1012E000291C03B0F0BDC046F0B5141C83B01D1C12
:1012F0000090019100F034F9221C2B1C061C0F1CDD
:1013000000F00CF8009A019B121A8B410899301CCE
:101310000A604B60391C03B0F0BDC046F0B54F46C3
:10132000464605042D0C2C1CC0B41704160C3F0CAB
:101330009946030C7C4375435F4373437D19260C28
:10134000AD199C46AF4203D980235B029846C44442
:101350004B465143434324042E0C240C2D04664475
:101360002C1959188919201C0CBC90469946F0BDBF
:10137000F0B544465F4656464D46F0B41C1C85B059
:10138000002900DAA9E00F1C0021061C8846101C69
:10139000191C002C00DA97E0341C3D1C824689465B
:1013A000B94273D870D04946504600F085F983465B
:1013B000391C301C00F080F95B46181A031C834668
:1013C000203B9C4600D59CE0002300225146009221
:1013D000019363469940019151468140019B0091E0
:1013E000BB4200D983E000D17EE0009A019B341C0F
:1013F0003D1CA41A9D416346002B00DA9AE00026AA
:1014000000270296039701369E40039601268640E8
:101410000296002800D171E00099019AD3079946FD
:101420004B464E081E435708002301220CE0AF42F2
:1014300001D1A6420AD8A41BBD4124196D4101382F
:10144000A4185D41002806D0AF42F0D90138241914
:101450006D410028F8D12022029E039F5B46524234
:1014600036196F4199185AD4281CC8402C1C5B4669
:10147000DC40002968DB041C8C40231C5946884052
:10148000021CB61A9F4103E0B0428CD90026002707
:1014900041464B1E9941002300910193009A019B04
:1014A000002554429D41331C6340181C3B1C6B407B
:1014B000191C009B019CC018614105B03CBC9046C2
:1014C0009946A246AB46F0BD4346DB430C1C98460A
:1014D000131C00215842A1415EE7002746428F417C
:1014E00001214942884652E7B14200D87DE70026F3
:1014F000002702960397002800D08DE7029E039FE5
:10150000C6E720215346091ACB400022191C0023AC
:10151000009201934B4683400B4301935CE75A468C
:1015200020239B1A2A1C9A40201C131C5A46D04088
:1015300018439BE720260027331A002602960397BC
:101540000127DF40039761E75B4620215D46C91A0A
:10155000031CAC40CB40191C231C0B438EE7C04638
:10156000F0B545464E465746E0B4041C82B00D1C0B
:10157000914698468B4262D85FD04146484600F07B
:101580009BF8291C061C201C00F096F82023311A19
:101590005B428A46C81865D44B4683401F1C4B46A5
:1015A0008B401E1CAF4258D855D0A41BBD4100280B
:1015B00000DA77E00022002300920193013282409A
:1015C000019201238B40009300293CD0FB079846F1
:1015D000404672087B080243012600270CE0AB421C
:1015E00001D1A2420AD8A41A9D4124196D410139A2
:1015F000A4197D41002906D0AB42F0D90139241944
:101600006D410029F8D12022009801995346524299
:10161000001969419E183AD42F1CF7405346DD400B
:10162000002E29DB3C1CB440231C5446A7403A1C26
:10163000801A99410090019105E082429DD90023D2
:101640000024009301940098019902B01CBC9046BC
:101650009946A246F0BDA342A7D9002200230092DA
:101660000193B1E720224B46521AD3401A1C43463D
:101670008B401F1C174392E7534620245646E41A1A
:101680003B1CB540E3401C1C2B1C2343CDE75246BA
:1016900020239B1A2A1C9A40271C131C5246D74011
:1016A0001F43BBE720230022581A00230092019316
:1016B0000132C240019284E710B5002903D100F045
:1016C00007F8203002E0081C00F002F810BDC04608
:1016D0001C2101231B04984201D3000C10391B0A62
:1016E000984201D3000A08391B09984201D3000926
:1016F000043902A2105C40187047C046040302027D
:1017000001010101000000000000000008B50021F7
:101710000A2200F041FA08BD70B50D4E0D4D0024AF
:10172000AD1BAD1005D0A300F35801349847A54276
:10173000F9D101F09DF8084E084D0024AD1BAD1005
:1017400005D0A300F35801349847A542F9D170BDE4
:101750007C2800007C2800007C28000080280000F5
:10176000931E10B5222B0FD80A2A06D000230C1C7A
:10177000C91800F01FFA201C10BD0028F6DA2D232E
:1017800040420B702C3BF2E7002300200B70F3E784
:1017900008B5FFF7E5FF08BD30B5032A1ED9031CC5
:1017A0000B439B0711D004780D784B1C8A18AC4270
:1017B00006D016E00133591E04780D78AC4210D1E2
:1017C00001309342F6D1002030BD03680C68A3427B
:1017D00004D1043A04300431032AF6D8002AE2D1B5
:1017E000F1E7601BF0E7C04670B50F2A32D9041C40
:1017F0000C430B1CA40731D1151C041C103D2D09F2
:1018000001352D0149191E6826605E6866609E6874
:10181000A660DE681033E66010349942F3D10F23DE
:1018200045191340032B1BD91C1F0023A4080134A6
:10183000A400CE58EE500433A342FAD1ED18C918D3
:1018400003231A4005D00023CC5CEC5401339342AF
:10185000FAD170BD051C002AF5D1FAE7051CF2E7A4
:101860001A1CF8E738B5051CAB0716D12A680F4BD0
:101870000F4CD3189343234216D1043002680B4B0C
:10188000D3189343234208D104300268074BD3187E
:1018900093432342F1D000E001300378002BFBD1C9
:1018A00000F04CF8281C38BD281CF6E7FFFEFEFEB1
:1018B00080808080024670B50A4392072AD11E4D6F
:1018C000EE0104C808C9541B9443344017D0D0B269
:1018D000D9B2401A2106014310D190B299B2401AF0
:1018E000210401430AD110021902000A090A401A10
:1018F0002102014302D1100E190E401A70BD9A4206
:10190000DFD010BA19BA884201D9012070BD002079
:10191000C04370BD02780B7801300131002A09D034
:101920009A4207D102780B7801300131002A01D0A8
:101930009A42EFD0D01A70BD01010101031C0A7850
:1019400001311A700133002AF9D1704710B58307AD
:1019500027D00378002B26D0031C032102E01A783D
:10196000002A1CD001330B42F9D119680F4A104CE0
:101970008A188A4322420FD1043319680B4A8A1805
:101980008A43224208D104331968084A8A188A43D4
:101990002242F1D000E001331A78002AFBD1181A54
:1019A00010BD031CE1E70020FAE7C046FFFEFEFE83
:1019B0008080808008B5034B1A6801235C3200F0F8
:1019C00003F808BD30040010F0B5002823D0471CF0
:1019D00006780C1C02E00134AE4214D02578002DAC
:1019E000F9D1002E1CD07E1C3D780B1C02E0013387
:1019F000002C0CD01C78AC42F9D1002D09D000236A
:101A00003B701660F0BD002B0DD0381CDFE7371C93
:101A1000E9E70026F5E710680028D8D10020F1E7B3
:101A200016600020EEE717600370EBE7F0B54D4657
:101A300056465F464446F0B41E1C554B85B0029195
:101A40001D6803900B1C9146082100E03B1C1C788C
:101A50005F1C2A1952781142F8D12D2C69D000222E
:101A600090462B2C00D173E0002E04D0102E00D114
:101A700071E0321C05E0302C00D17DE00A230A26FB
:101A80001A1C444B111C4344181C92469B46FFF7FA
:101A9000E3FB584601915146FFF758FB0422844668
:101AA000D3469246321C3B1C2E1C0020654600216A
:101AB00094460DE0303CA44518DD421C06D0A942F6
:101AC0002ED82AD05A460120514361181C78013380
:101AD0005746321952781742ECD103273A4005D0C5
:101AE000012A20D05722A41AA445E6DC421C25D0A6
:101AF0004246524251400A1C49464244002944D0C1
:101B0000002813D1101C029B4A46136005B03CBC50
:101B100090469946A246AB46F0BD019A9442D1DD6B
:101B200001204042D2E73722A41ADDE7101C013B16
:101B3000EAE79F1C5C780123984695E722220399E7
:101B400014480A604A464044002ADFD0013BDBE7E4
:101B50009F1C5C7888E710231A1C302C00D090E77B
:101B60003B7810329343582B00D082E710237C78C7
:101B70001A1C0237102684E720223B789343582B07
:101B8000F4D0082308261A1C7BE7101CBEE7C046C9
:101B900004000010FFFFFF7F38B5051C0C1C131C50
:101BA000034A291C1068221CFFF740FF38BDC046BD
:101BB00030040010F0B5574645464E46E0B48AB0B2
:101BC00090466A461D4B0D1C061C13CB13C213CB4B
:101BD00013C213CB13C21B78EA4613704346023B71
:101BE0002F1C0024222B01D924E04C46631C301CFE
:101BF00041469946FFF730FB53465B5C301C3B7017
:101C00004146FFF7A3FA0137061EEED14B46E854D2
:101C10000023002C07D0EA5C295DE9542A550133E2
:101C2000013CA342F7DB281C0AB01CBC9046994635
:101C3000A246F0BD2C700020F6E7C0464027000009
:101C400010B5064C2378002B07D1054B002B02D092
:101C5000044800E000BF0123237010BDF40700100A
:101C6000000000009428000008B5084B002B03D0AA
:101C70000748084900E000BF07480368002B00D16F
:101C800008BD064B002BFBD09847F9E70000000089
:101C900094280000F8070010340400100000000031
:101CA00021212120616666656374656420212121FC
:101CB000200D0A007374617274696E67206D61692A
:101CC0006E0D0A00657272200052494E4742554619
:101CD0005F46554C4C210055415254544D5042558D
:101CE000465F46554C4C2100001BB7000000000029
:101CF0007374617274696E672075310D0A00207308
:101D0000656C656374205769466920415020003C2A
:101D1000666F726D206D6574686F643D22706F73BD
:101D200074223E003C696E707574206E616D653D75
:101D3000227769666941702220747970653D22724C
:101D40006164696F222076616C75653D20003E20DC
:101D5000002028003C62723E003C703E3C696E7080
:101D6000757420747970653D227375626D69742293
:101D70003E3C2F703E003C2F666F726D3E3C2F73D1
:101D8000656374696F6E3E3C2F6469763E00415313
:101D900053455254494F4E21210D0A002F002F6602
:101DA000617669636F6E2E69636F002C3A00636F12
:101DB0006E4E756D200020737461727420726563BD
:101DC00076206D73672077697468206C656E677420
:101DD00068200020616E64200020636861727320B7
:101DE000616C72656164792072656376640D0A00C6
:101DF0002B43494653523A41504950002B434946E0
:101E000053523A41504D4143002B43494653523AB5
:101E10005354414950002B43494653523A5354417D
:101E20004D4143003A2822002C2829002B495044D8
:101E3000002B4349465352002B43574C41500062FC
:101E400075737920732E2E2E0D0A002C434F4E4EA3
:101E50004543540D0A002C434C4F5345440D0A0092
:101E600053454E44204F4B0D0A003E200D0A0021E1
:101E7000212153454E445F52454144592121210DB2
:101E80000A005749464920474F542049500D0A003F
:101E90005749464920444953434F4E4E4543540DFC
:101EA0000A0072656164790D0A005265637600214B
:101EB000212120756E6B6E6F776E20636D6421211A
:101EC00021200D0A00212121206465746563746559
:101ED0006420636F6E6E656374696F6E20636C6FF0
:101EE000736564202121210D0A00415445300D0AFB
:101EF0000041542B4349504D55583D310D0A004186
:101F0000542B4349505345525645523D312C38309D
:101F10000D0A0041542B43495053544F3F0D0A00C2
:101F200041542B43494653520D0A0041542B435709
:101F30004C41500D0A00206D657373616765207216
:101F40006563766421200D0A0073656E6420524F2C
:101F50004F540D0A0041542B43495053454E443DC4
:101F6000002C006E6F7468696E672073656E642E56
:101F7000206E6F7420524F4F540D0A0041542B4372
:101F80004950434C4F53453D004552524F52205209
:101F9000454356204D5347210D0A00206E6F742093
:101FA0005445585420747970650D0A002121212070
:101FB00068746D6C53656E64546573743020434D62
:101FC000445F4F4B2064657465637465642121210F
:101FD0000D0A002121212068746D6C53656E6454D4
:101FE0006573743020627573795F732064657465FE
:101FF000637465642121210D0A0021212120687468
:102000006D6C53656E6454657374302053454E4453
:102010005F4F4B2064657465637465642121210DF5
:102020000A002121212068746D6C53656E64302094
:102030004F4B2064657465637465642121210D0A2A
:10204000002121212068746D6C53656E643020720C
:10205000656164795F746F5F73656E642064657435
:1020600065637465642121210D0A0021212120620C
:102070007573792064657465637465642121210D2D
:102080000A002121212068746D6C53656E64302034
:1020900053454E445F4F4B206465746563746564BB
:1020A0002121210D0A002121212068746D6C5365C6
:1020B0006E643120434D445F4F4B2064657465630B
:1020C0007465642121210D0A002121212068746D8D
:1020D0006C53656E64312072656164795F746F5F03
:1020E00073656E6420646574656374656421212181
:1020F0000D0A002121212068746D6C53656E6431D6
:102100002053454E445F4F4B20646574656374658E
:10211000642121210D0A002121212068746D6C5356
:10212000656E643220434D445F4F4B206465746597
:10213000637465642121210D0A0021212120687426
:102140006D6C53656E64322072656164795F746F83
:102150005F73656E642064657465637465642121D2
:10216000210D0A002121212068746D6C436C6F736E
:10217000652053454E445F4F4B206465746563741E
:1021800065642121210D0A003C68746D6C3E203C81
:10219000686561643E3C7469746C653E41494953AD
:1021A0002041534B55453C2F7469746C653E3C731C
:1021B00074796C653E0D0A2E74616273207B206D0C
:1021C000696E2D77696474683A2033323070783BD9
:1021D000206D61782D77696474683A2038303070EA
:1021E000783B2070616464696E673A203070783B98
:1021F000206D617267696E3A2030206175746F3BA3
:10220000207D0D0A73656374696F6E207B2064699D
:1022100073706C61793A206E6F6E653B20706164FB
:1022200064696E673A20313570783B206261636B78
:1022300067726F756E643A20236666663B20626F34
:10224000726465723A2031707820736F6C69642013
:10225000236464643B7D0D0A23746162312C202366
:10226000746162322C2023746162332C20237461E8
:102270006234207B646973706C61793A206E6F6E92
:10228000653B7D0D0A2E74616273206C6162656C22
:10229000207B20646973706C61793A20696E6C6987
:1022A0006E652D626C6F636B3B206D617267696E4A
:1022B0003A20302030202D3170783B2070616464EA
:1022C000696E673A203135707820323570783B205E
:1022D000666F6E742D7765696768743A20363030A2
:1022E0003B20746578742D616C69676E3A20636574
:1022F0006E7465723B20636F6C6F723A202361616C
:10230000613B20626F726465723A2031707820738D
:102310006F6C696420236464643B206261636B6753
:10232000726F756E643A20236631663166313B20E8
:10233000626F726465722D7261646975733A2033DD
:10234000707820337078203020303B207D2E7461EF
:102350006273206C6162656C3A6265666F726520BB
:102360007B20666F6E742D66616D696C793A2066AC
:102370006F6E74617765736F6D653B20666F6E7409
:102380002D7765696768743A206E6F726D616C3B7A
:10239000206D617267696E2D72696768743A2031C9
:1023A0003070783B7D2E74616273206C6162656C65
:1023B0003A686F766572207B636F6C6F723A202388
:1023C0003838383B637572736F723A20706F696E7C
:1023D0007465723B7D2E7461627320696E707574D2
:1023E0003A636865636B6564202B206C6162656C81
:1023F000207B20636F6C6F723A20233535353B208C
:10240000626F726465723A2031707820736F6C6904
:102410006420236464643B20626F726465722D746F
:102420006F703A2031707820736F6C6964202330AC
:1024300030393933333B20626F726465722D626FBD
:1024400074746F6D3A2031707820736F6C696420FA
:10245000236666663B206261636B67726F756E64AC
:102460003A20236666663B7D23746162313A636875
:1024700065636B6564207E2023636F6E74656E7484
:10248000312C2023746162323A636865636B656442
:10249000207E2023636F6E74656E74322C2023744B
:1024A0006162333A636865636B6564207E202363F1
:1024B0006F6E74656E74332C2023746162343A63DA
:1024C0006865636B6564207E2023636F6E74656E40
:1024D0007434207B646973706C61793A20626C6F2C
:1024E000636B3B7D406D65646961207363726565F4
:1024F0006E20616E6420286D61782D776964746840
:102500003A20343030707829207B2E746162732039
:102510006C6162656C207B70616464696E673A20EF
:10252000313570783B7D7D0D0A3C2F7374796C6575
:102530003E0D0A0D0A3C2F686561643E203C626FC7
:1025400064793E3C64697620636C6173733D2274E8
:10255000616273223E3C696E7075742069643D222D
:10256000746162312220747970653D227261646900
:102570006F22206E616D653D22746162732220635B
:102580006865636B65643E3C6C6162656C20666F78
:10259000723D227461623122207469746C653D223F
:1025A000696E666F223E696E666F3C2F6C61626574
:1025B0006C3E3C696E7075742069643D2274616282
:1025C000322220747970653D22726164696F222025
:1025D0006E616D653D2274616273223E3C6C616286
:1025E000656C20666F723D227461623222207469CC
:1025F000746C653D22737461747573223E737461EB
:102600007475733C2F6C6162656C3E3C696E7075CD
:10261000742069643D22746162332220747970658C
:102620003D22726164696F22206E616D653D227486
:10263000616273223E3C6C6162656C20666F723D24
:10264000227461623322207469746C653D22736563
:102650007474696E6773223E73657474696E677310
:102660003C2F6C6162656C3E3C73656374696F6E90
:102670002069643D22636F6E74656E7431223E3C46
:10268000703E636F6E74656E74313C2F703E3C2FEC
:1026900073656374696F6E3E3C73656374696F6ED6
:1026A0002069643D22636F6E74656E7432223E3C15
:1026B000703E636F6E74656E74323C2F703E3C2FBB
:1026C00073656374696F6E3E3C73656374696F6EA6
:1026D0002069643D22636F6E74656E7433223E3CE4
:1026E000703E636F6E74656E74333C2F703E003CB9
:1026F0002F626F64793E3C2F68746D6C3E0D0A004A
:1027000000000000C027090090051000C05C150003
:10271000F0B31A00200B2000009F2400E0322900B3
:10272000C0C62D0050973100E06735007038390081
:1027300000093D004016400080234300C0304600A1
:102740003031323334353637383961626364656627
:102750006768696A6B6C6D6E6F7071727374757691
:102760007778797A000000000020202020202020A7
:102770002020282828282820202020202020202031
:102780002020202020202020208810101010101041
:10279000101010101010101010040404040404048D
:1027A0000404041010101010101041414141414127
:1027B0000101010101010101010101010101010109
:1027C0000101010110101010101042424242424219
:1027D00002020202020202020202020202020202D9
:1027E0000202020210101010200000000000000081
:1027F00000000000000000000000000000000000D9
:1028000000000000000000000000000000000000C8
:1028100000000000000000000000000000000000B8
:1028200000000000000000000000000000000000A8
:102830000000000000000000000000000000000098
:102840000000000000000000000000000000000088
:102850000000000000000000000000000000000078
:102860000000000000000000000000004300000025
:10287000F8B5C046F8BC08BC9E467047691C00000D
:0C288000F8B5C046F8BC08BC9E46704786
:08288C00E4EAFF7F01000000F7
:10289400010000006827000000000000F40200109E
:1028A4005C030010C40300100000000000000000DE
:1028B4000000000000000000000000000000000014
:1028C4000000000000000000000000006C28000070
:1028D40000000000000000000000000000000000F4
:1028E40000000000000000000000000000000000E4
:1028F40000000000000000000000000000000000D4
:1029040000000000000000000000000000000000C3
:1029140000000000000000000000000000000000B3
:1029240000000000000000000000000000000000A3
:102934000000000000000000000000000000000093
:1029440001000000000000000E33CDAB34126DE630
:10295400ECDE05000B000000000000000000000099
:102964000000000000000000000000000000000063
:102974000000000000000000000000000000000053
:102984000000000000000000000000000000000043
:102994000000000000000000000000000000000033
:042CC40008000010F4
:0400000300000103F5
:00000001FF
