:100000000010001003010000D5000000D700000020
:1000100000000000000000000000000000000000E0
:10002000000000000000000000000000D9000000F7
:100030000000000000000000DB000000DD00000008
:10004000DF000000DF00000000000000DF00000013
:1000500029020000DF000000000000000000000096
:10006000DF000000DF000000DF000000DF00000014
:10007000DF000000DF00000000000000DF000000E3
:100080000000000000000000000000000000000070
:100090000000000000000000000000000000000060
:1000A000DF000000DF000000DF000000DF000000D4
:1000B000DF000000DF000000DF000000DF000000C4
:1000C0006823000000000010340400003404001015
:1000D000E0030000FEE7FEE7FEE7FEE7FEE7FEE7DF
:1000E000002310B5934203D21C585C500433F9E747
:1000F00010BD00238B4203D200221A500433F9E7CB
:10010000704710B50D4C0E4B9C4206D220686168BA
:10011000A268FFF7E5FF0C34F5E70A4B9C4205D2D5
:1001200020686168FFF7E5FF0834F6E700F030FE6D
:1001300001F092F900F034F8FEE7C046C00000007C
:10014000CC000000D400000070B5114D114C29788E
:100150001148611800F0A8FD002817D02A78A35C88
:1001600001320A2B10D10026D2B2211C0B482A7072
:10017000A65400F064FE201C00F0A6FA2A78211C88
:1001800000F03CFB2E70E0E72A70DEE770BDC04651
:1001900049050010480400103404001000400640D7
:1001A00010B500F069F88023154916480122DB00DC
:1001B00000F05AFD1448154900F052F8FFF7C4FF4B
:1001C000134C2378002B16D00F48124900F048F842
:1001D0002378DB0703D50C480F4900F041F823785A
:1001E0009B0703D508480D4900F03AF806480C492A
:1001F00000F036F8FEE70B4A136801331360DDE7C1
:10020000140800103404001000400640E0190000FB
:1002100048050010F0190000F5190000031A00004D
:10022000071C00004C05001013B50124094B9A6807
:1002300022420DD06A465B69D11D07480B7000F061
:100240001BFD0028F1D1054A137823431370ECE716
:1002500013BDC0460080064034040010480500105D
:1002600038B5051C081C0C1C01F010FA211C021CDE
:10027000281C00F0E4FD38BDF8B5022000F052FD66
:10028000002000F01FFC002000F012FC494B8020F1
:100290001A6901221A6100F033FD2423464C8020A4
:1002A000A36000F03FFD231C0124DA682242FBD04A
:1002B000A025414B2D069C67032000F003FC00F0B5
:1002C000EFFB281C00F0C6FC802280219201AB5875
:1002D00089020B43AB508022384F6C74FB6F384D52
:1002E0001B031B0B1343FB67364B281C1C6000F0E1
:1002F00053FD2B68344AE1201340042213432B6042
:10030000211C400300F06CFCE121281C490200F094
:10031000A8FD08202B682D4A2D49134023432B604C
:100320006B682C4A2C4E1340473AFF3A6B608B584F
:10033000DB05DB0D23438B508B58DB05DB0D0343C3
:100340008B5000200B2100F0C7FC201C022100F084
:10035000C3FC301C00F020FD33681B4AE120134031
:10036000042213433360211C400300F039FCE121D7
:10037000301C490200F075FD3368144A1120134007
:10038000234333607368134A0C211340736000F0F9
:10039000A3FC12200D2100F09FFCFA6F0F4B281CCC
:1003A00013401022FB670E4BF4600E491A60FFF7F2
:1003B00057FFF8BD00000440008004400480044062
:1003C000004006409480044001DA00007CDA00001E
:1003D00000C0004006030000008006407FFF0F00C1
:1003E00000E100E01C1A0000F0B5314C85B0314945
:1003F000201C01F043F93049201C01F0D3F8201CE7
:100400002E4901F0CFF82E4E2E4B751CF618002306
:10041000EB56002B26D02C496F1C201C01F0C2F893
:10042000391C201C01F0BEF82849201C01F0BAF844
:10043000391C201C01F0B6F82549201C01F0B2F847
:1004400000200A2201A9285601F042F801A9201C27
:1004500001F0A8F81F49201C01F0A4F8201C1E4937
:1004600001F0A0F82A35B542D1D11C49201C01F079
:1004700099F81B49201C01F095F8201C01F006F9A1
:10048000184B984204D918481849FFF7E9FEFEE7CF
:10049000174801F0FBF8051C1648673001F0F6F824
:1004A0004519201C01F0F2F8281805B0F0BDC0462F
:1004B000140C0010781A00002A1A00003B1A0000E1
:1004C0007A05001077020000501A00002C1C000072
:1004D0007A1A0000441B00007D1A0000821A0000F6
:1004E0009F1A0000E703000000400640B71A000012
:1004F000591C000059210000F0B500252C1C87B0C4
:100500000F1C2849161C01F0F5F8264B0193002812
:1005100017D0022C07D0032C09D0012C0AD100F0EF
:1005200095FF387006E000F091FF308002E001F0A6
:10053000ADF885B200200199013401F0DBF8E4B296
:10054000E5E719481949FFF78BFE0A2203A9387815
:1005500000F0BEFF03A91448FFF782FE12481449B9
:10056000FFF77EFE0A2203A90023F05E00F0B0FF31
:1005700003A90D48FFF774FE0B480E49FFF770FE04
:100580000A2203A9281C00F0A3FF03A90648FFF7CD
:1005900067FE05480849FFF763FE3088451B358034
:1005A00007B0F0BDC51A000000400640C81A0000A0
:1005B000D01A0000ED1A0000F31A000038B5204DE3
:1005C000041C281C01F062F8291C421E201C00F0AB
:1005D00083FF002806D1211C1A480C3101F04EF887
:1005E00005232AE0184D281C01F050F8291C421E52
:1005F000201C00F071FF062300281ED0134D281C7C
:1006000001F044F8291C421E201C00F065FF002860
:1006100006D1211C0E480D3101F030F807230CE003
:100620000C4D281C01F032F8291C421E201C00F041
:1006300053FF0F23002800D1073B181C38BDC046CC
:100640000A1B000065050010161B0000231B00009C
:1006500050050010301B0000F8B5174901F04AF8AA
:100660000025041C154E3778002C21D0022D0AD00D
:10067000032D15D1201C00F0E9FE2A237B43104AEC
:10068000D31858700CE0201C01F000F82A237B439B
:100690000B4A611CD3180233821E181C00F044FF61
:1006A0000020084901F026F80135041CEDB2DBE713
:1006B000337801333370F8BD3E1B00006405001031
:1006C0007A050010421B000038B50378041C2B2B60
:1006D00031D13B4D281C00F0D9FF291C421E201CA3
:1006E00000F0FAFE002806D1201C3649364AFFF7F2
:1006F00003FF042362E0354D281C00F0C7FF291CCE
:10070000421E201C00F0E8FE002804D1201CFFF748
:1007100055FF031C52E02E4D281C00F0B7FF291C8A
:10072000421E201C00F0D8FE002802D1201CFFF73A
:1007300093FF0F2342E000F0A9FF042807D1201CFB
:10074000244900F057FF0923002837D0F1E7651C42
:10075000281C214900F04EFF0A2300282ED0281C17
:100760001E4900F047FF0B23002827D0201C1C49FE
:1007700000F040FF0D23002820D0201C194900F074
:1007800039FF002805D118481849FFF769FD0E23E5
:1007900014E0201C164900F02DFF032300280DD083
:1007A000201C144900F026FF0123002806D0201C3D
:1007B000114900F01FFF031E00D00C23181C38BD88
:1007C000461B000079050010F00700104B1B0000CD
:1007D000521B0000731B0000591B0000641B00002B
:1007E0006E1B0000781B0000004006407D1B0000CF
:1007F000901B00009E1B0000B01B00007FB5041C76
:10080000161C904D042801D107232B70287801383D
:10081000102800D914E100F02FFB11001F00280060
:1008200034003D00420047003D003D003D009D007A
:10083000C900F400130113011301FD00002C02D1C3
:100840008148824918E0092C00D0F9E07E488049AF
:10085000FFF706FD0223F2E0092C00D0F0E07A4811
:100860007C49FFF7FDFC0323E9E0082C07D0092CA5
:1008700000D0E5E074487849FFF7F2FCE0E004239B
:10088000DDE0092C00D0DBE06F487449FFF7E8FC9D
:100890000523D4E00623092C00D0D1E0CFE00723C4
:1008A000042C00D0CCE0CAE00C2C50D16C4C238836
:1008B0009B1B9BB22380002B23D16A486A49FFF718
:1008C000CFFC61486949FFF7CBFC694B0A221878D5
:1008D00001A900F0FDFD5C4801A9FFF7C1FC6549D5
:1008E0005948FFF7BDFC644800F0D0FE01A90A2278
:1008F00000F0EEFD544801A9FFF7B2FC52485F49F1
:1009000004E01BB25748002B04DA5D49FFF7A8FC4E
:100910000B2394E05B49FFF7A3FC0A2201A9301CDA
:1009200000F0D6FD4F4801A9FFF79AFC4D48564903
:10093000FFF796FC01A90A220023E05E00F0C8FD43
:10094000484801A9FFF78CFC4648504994E74548C0
:100950004F4991E7092C02D13B4847498CE70D2CC0
:100960006ED1FFF741FD38484049FFF779FC404B15
:100970000A22187801A900F0ABFD334801A9FFF75E
:100980006FFC3C493048FFF76BFC424800F07EFEAC
:100990000A2201A900F09CFD2B4801A9FFF760FC89
:1009A00029483649FFF75CFC0C2348E0092C02D1AA
:1009B0002548384960E70D2C42D123482B49FFF7E1
:1009C0004FFC2B4B0A22187801A900F081FD1E482C
:1009D00001A9FFF745FC27491B48FFF741FC2E48BA
:1009E000673000F053FE0A2201A900F071FD16489D
:1009F00001A9FFF735FC14482049FFF731FC2C70A2
:100A00001EE0092C1CD124490F486731FFF728FC50
:100A1000112314E00D2C13D10B482049FFF720FCC3
:100A2000134B0A22187801A900F052FD064801A9CB
:100A3000FFF716FC04481149FFF712FC09232B703D
:100A40007FBDC0460000001000800640B81B0000BB
:100A5000BF1B0000CD1B0000E11B0000EC1B0000D1
:100A6000F007001000400640F71B00000A1C0000C1
:100A700079050010161C0000591C0000071C00001E
:100A8000181C00002A1C00002F1C0000341C000051
:100A90003B1C0000140C0010592100004C1C0000ED
:100AA00008B500F06DF8014B186008BD1008001083
:100AB0000022034B18645A6401325A647047C046DE
:100AC000008004400022034B18675A6701325A67BE
:100AD0007047C0460080044008B5074B596A1F2381
:100AE000CA05120F1940054B920001314900D05838
:100AF00000F0CCF908BDC04600800440D4210000BD
:100B0000084B1A6C03231340012B06D0032B06D08D
:100B10000020002B05D1044803E0044B00E0044B07
:100B20001868704700800440001BB700141A0000CA
:100B3000181A0000044B10B59C68FFF7E1FF1F2353
:100B400023400133584310BD0080044008B50A4BD0
:100B50001A6F03231340022B06D0032B07D0012B5F
:100B600008D1FFF7CDFF06E0FFF7B6FF03E0FFF780
:100B7000E1FF00E0014808BD00800440001BB70011
:100B800008B5FFF7E3FF034B996FC9B200F07EF998
:100B900008BDC0460080044038B50020FF240D4B3E
:100BA0001D682540854213D0FFF7D0FF291C00F0B7
:100BB0006DF9094B1A681440FF2C09D1074B010E3F
:100BC0001A6800021440621CFF32002300F0F0F9A2
:100BD00038BDC04694800440F0800440F480044056
:100BE000F8B5051C0F1CFFF7B1FF291C061C00F00F
:100BF0004DF9011E00D10131FF24081C104B20408B
:100C00001860104A1048002F15D057680F4B3B4012
:100C1000042753605368DB04DB0C3B4353600460E0
:100C2000301C00F033F9291C000200F02FF9084BAA
:100C300004401C6000E00760FFF7AEFFF8BDC0464F
:100C40009480044000800440F0800440FB1F0000BA
:100C5000F48004404021034AD36F1B031B0B0B435A
:100C6000D3677047048004404360002301608260C2
:100C70000361C3600120704738B5041CC268056871
:100C800063680069121A00209A420CDAE068013B9E
:100C90001840A368A2684343E81800F045FC01200F
:100CA000E3680133E36038BD38B5C5680369041CE7
:100CB000026800209D420ED06368081C2169013B38
:100CC0000B40A1684B43D118A26800F02DFC012015
:100CD00023690133236138BD0F2310B5FF2403407E
:100CE000DB009C40054A000980008018026899409A
:100CF000A243131C0B43036010BDC04600C000405C
:100D00008E22054992008B581843044B1840044B1F
:100D1000184388507047C04600800440EF800000B0
:100D2000106D00008E2110B5054C89006358054AEE
:100D3000134002409343044A1343635010BDC0461E
:100D400000800440EF800000106D000010B502200C
:100D5000FFF7E8FF0020FFF7ABFE0B4B80201A697E
:100D600001221A61FFF7CCFF4123084C8020A360C9
:100D7000FFF7D8FF0123E2681A42FBD0034A0320A1
:100D80009367FFF79FFE10BD000004400080044001
:100D900008B5FFF7DBFF08BD70B51A4C0E21A04265
:100DA00005D0194BC1184A4251411023591A012646
:100DB0008E40164D164BEA6F1203120B3243EA6750
:100DC000A04208D15968134A0A405A605A6808215B
:100DD000D204D20C12E0104A5968904207D10F4A4F
:100DE0000A405A605A681021D204D20C06E00C4A1C
:100DF0000A4020215A605A68D204D20C0A435A6031
:100E000070BDC046004006400080F9BF0480044029
:100E100000800440F71F000000800640EF1F000024
:100E2000DF1F0000002310B5934206DA84686407D0
:100E300003D5CC5C0133C461F6E7181C10BDF8B5CE
:100E4000071C0E1C141C0025002C08DD311C221C64
:100E5000381CFFF7E7FF241A2D183618F4E7281C72
:100E6000F8BD38B50C1C051CFFF796FE210100F0FB
:100E70000DF80138286238BD03B4714649084000B6
:100E80004900095A49008E4403BC704700224308B8
:100E90008B4274D303098B425FD3030A8B4244D342
:100EA000030B8B4228D3030C8B420DD3FF22090284
:100EB00012BA030C8B4202D31212090265D0030B43
:100EC0008B4219D300E0090AC30B8B4201D3CB0339
:100ED000C01A5241830B8B4201D38B03C01A52417B
:100EE000430B8B4201D34B03C01A5241030B8B427D
:100EF00001D30B03C01A5241C30A8B4201D3CB0268
:100F0000C01A5241830A8B4201D38B02C01A52414C
:100F1000430A8B4201D34B02C01A5241030A8B424F
:100F200001D30B02C01A5241CDD2C3098B4201D367
:100F3000CB01C01A524183098B4201D38B01C01AE5
:100F4000524143098B4201D34B01C01A524103095C
:100F50008B4201D30B01C01A5241C3088B4201D30B
:100F6000CB00C01A524183088B4201D38B00C01AB8
:100F7000524143088B4201D34B00C01A5241411ADF
:100F800000D20146524110467047FFE701B50020EC
:100F900000F00CF802BDC0460029F7D003B5FFF7FA
:100FA00075FF0EBC4243891A1847C0467047C046B9
:100FB000002B11D1002A0FD1002900D1002802D026
:100FC0000021C943081C07B4024802A1401802903E
:100FD00003BDC046D9FFFFFF03B4684601B50298C0
:100FE00000F022F8019B9E4602B00CBC7047C04640
:100FF000F0B583B0161C1F1C0090019100F058F84A
:10100000041C0D1C221C2B1C301C391C00F026F863
:10101000009A019B121A8B410899201C0A604B60B0
:10102000291C03B0F0BDC046F0B5141C83B01D1CD4
:101030000090019100F034F9221C2B1C061C0F1C9F
:1010400000F00CF8009A019B121A8B410899301C91
:101050000A604B60391C03B0F0BDC046F0B54F4686
:10106000464605042D0C2C1CC0B41704160C3F0C6E
:101070009946030C7C4375435F4373437D19260CEB
:10108000AD199C46AF4203D980235B029846C44405
:101090004B465143434324042E0C240C2D04664438
:1010A0002C1959188919201C0CBC90469946F0BD82
:1010B000F0B544465F4656464D46F0B41C1C85B01C
:1010C000002900DAA9E00F1C0021061C8846101C2C
:1010D000191C002C00DA97E0341C3D1C824689461E
:1010E000B94273D870D04946504600F085F983461E
:1010F000391C301C00F080F95B46181A031C83462B
:10110000203B9C4600D59CE00023002251460092E3
:10111000019363469940019151468140019B0091A2
:10112000BB4200D983E000D17EE0009A019B341CD1
:101130003D1CA41A9D416346002B00DA9AE000266C
:1011400000270296039701369E40039601268640AB
:101150000296002800D171E00099019AD3079946C0
:101160004B464E081E435708002301220CE0AF42B5
:1011700001D1A6420AD8A41BBD4124196D410138F2
:10118000A4185D41002806D0AF42F0D901382419D7
:101190006D410028F8D12022029E039F5B465242F7
:1011A00036196F4199185AD4281CC8402C1C5B462C
:1011B000DC40002968DB041C8C40231C5946884015
:1011C000021CB61A9F4103E0B0428CD900260027CA
:1011D00041464B1E9941002300910193009A019BC7
:1011E000002554429D41331C6340181C3B1C6B403E
:1011F000191C009B019CC018614105B03CBC904685
:101200009946A246AB46F0BD4346DB430C1C9846CC
:10121000131C00215842A1415EE7002746428F413E
:1012200001214942884652E7B14200D87DE70026B5
:10123000002702960397002800D08DE7029E039FA7
:10124000C6E720215346091ACB400022191C00236F
:10125000009201934B4683400B4301935CE75A464F
:1012600020239B1A2A1C9A40201C131C5A46D0404B
:1012700018439BE720260027331A0026029603977F
:101280000127DF40039761E75B4620215D46C91ACD
:10129000031CAC40CB40191C231C0B438EE7C046FB
:1012A000F0B545464E465746E0B4041C82B00D1CCE
:1012B000914698468B4262D85FD04146484600F03E
:1012C0009BF8291C061C201C00F096F82023311ADC
:1012D0005B428A46C81865D44B4683401F1C4B4668
:1012E0008B401E1CAF4258D855D0A41BBD410028CE
:1012F00000DA77E00022002300920193013282405D
:10130000019201238B40009300293CD0FB079846B3
:10131000404672087B080243012600270CE0AB42DE
:1013200001D1A2420AD8A41A9D4124196D41013964
:10133000A4197D41002906D0AB42F0D90139241906
:101340006D410029F8D1202200980199534652425C
:10135000001969419E183AD42F1CF7405346DD40CE
:10136000002E29DB3C1CB440231C5446A7403A1CE9
:10137000801A99410090019105E082429DD9002395
:101380000024009301940098019902B01CBC90467F
:101390009946A246F0BDA342A7D90022002300929D
:1013A0000193B1E720224B46521AD3401A1C434600
:1013B0008B401F1C174392E7534620245646E41ADD
:1013C0003B1CB540E3401C1C2B1C2343CDE752467D
:1013D00020239B1A2A1C9A40271C131C5246D740D4
:1013E0001F43BBE720230022581A002300920193D9
:1013F0000132C240019284E710B5002903D100F008
:1014000007F8203002E0081C00F002F810BDC046CA
:101410001C2101231B04984201D3000C10391B0A24
:10142000984201D3000A08391B09984201D30009E8
:10143000043902A2105C40187047C046040302023F
:1014400001010101000000000000000008B50021BA
:101450000A2200F041FA08BD70B50D4E0D4D002472
:10146000AD1BAD1005D0A300F35801349847A54239
:10147000F9D100F067FF084E084D0024AD1BAD10F8
:1014800005D0A300F35801349847A542F9D170BDA7
:10149000502300005023000050230000542300007C
:1014A000931E10B5222B0FD80A2A06D000230C1C3D
:1014B000C91800F01FFA201C10BD0028F6DA2D23F1
:1014C00040420B702C3BF2E7002300200B70F3E747
:1014D00008B5FFF7E5FF08BD30B5032A1ED9031C88
:1014E0000B439B0711D004780D784B1C8A18AC4233
:1014F00006D016E00133591E04780D78AC4210D1A5
:1015000001309342F6D1002030BD03680C68A3423D
:1015100004D1043A04300431032AF6D8002AE2D177
:10152000F1E7601BF0E7C04670B50F2A32D9041C02
:101530000C430B1CA40731D1151C041C103D2D09B4
:1015400001352D0149191E6826605E6866609E6837
:10155000A660DE681033E66010349942F3D10F23A1
:1015600045191340032B1BD91C1F0023A408013469
:10157000A400CE58EE500433A342FAD1ED18C91896
:1015800003231A4005D00023CC5CEC540133934272
:10159000FAD170BD051C002AF5D1FAE7051CF2E767
:1015A0001A1CF8E738B5051CAB0716D12A680F4B93
:1015B0000F4CD3189343234216D1043002680B4BCF
:1015C000D3189343234208D104300268074BD31841
:1015D00093432342F1D000E001300378002BFBD18C
:1015E00000F04CF8281C38BD281CF6E7FFFEFEFE74
:1015F00080808080024670B50A4392072AD11E4D32
:10160000EE0104C808C9541B9443344017D0D0B22B
:10161000D9B2401A2106014310D190B299B2401AB2
:10162000210401430AD110021902000A090A401AD2
:101630002102014302D1100E190E401A70BD9A42C8
:10164000DFD010BA19BA884201D9012070BD00203C
:10165000C04370BD02780B7801300131002A09D0F7
:101660009A4207D102780B7801300131002A01D06B
:101670009A42EFD0D01A70BD01010101031C0A7813
:1016800001311A700133002AF9D1704710B5830770
:1016900027D00378002B26D0031C032102E01A7800
:1016A000002A1CD001330B42F9D119680F4A104CA3
:1016B0008A188A4322420FD1043319680B4A8A18C8
:1016C0008A43224208D104331968084A8A188A4397
:1016D0002242F1D000E001331A78002AFBD1181A17
:1016E00010BD031CE1E70020FAE7C046FFFEFEFE46
:1016F0008080808008B5034B1A6801235C3200F0BB
:1017000003F808BD30040010F0B5002823D0471CB2
:1017100006780C1C02E00134AE4214D02578002D6E
:10172000F9D1002E1CD07E1C3D780B1C02E0013349
:10173000002C0CD01C78AC42F9D1002D09D000232C
:101740003B701660F0BD002B0DD0381CDFE7371C56
:10175000E9E70026F5E710680028D8D10020F1E776
:1017600016600020EEE717600370EBE7F0B54D461A
:1017700056465F464446F0B41E1C554B85B0029158
:101780001D6803900B1C9146082100E03B1C1C784F
:101790005F1C2A1952781142F8D12D2C69D00022F1
:1017A00090462B2C00D173E0002E04D0102E00D1D7
:1017B00071E0321C05E0302C00D17DE00A230A26BE
:1017C0001A1C444B111C4344181C92469B46FFF7BD
:1017D000E3FB584601915146FFF758FB042284462B
:1017E000D3469246321C3B1C2E1C0020654600212D
:1017F00094460DE0303CA44518DD421C06D0A942B9
:101800002ED82AD05A460120514361181C78013342
:101810005746321952781742ECD103273A4005D087
:10182000012A20D05722A41AA445E6DC421C25D068
:101830004246524251400A1C49464244002944D083
:10184000002813D1101C029B4A46136005B03CBC13
:1018500090469946A246AB46F0BD019A9442D1DD2E
:1018600001204042D2E73722A41ADDE7101C013BD9
:10187000EAE79F1C5C780123984695E722220399AA
:1018800014480A604A464044002ADFD0013BDBE7A7
:101890009F1C5C7888E710231A1C302C00D090E73E
:1018A0003B7810329343582B00D082E710237C788A
:1018B0001A1C0237102684E720223B789343582BCA
:1018C000F4D0082308261A1C7BE7101CBEE7C0468C
:1018D00004000010FFFFFF7F38B5051C0C1C131C13
:1018E000034A291C1068221CFFF740FF38BDC04680
:1018F00030040010F0B5574645464E46E0B48AB075
:1019000090466A461D4B0D1C061C13CB13C213CB0D
:1019100013C213CB13C21B78EA4613704346023B33
:101920002F1C0024222B01D924E04C46631C301CC0
:1019300041469946FFF730FB53465B5C301C3B70D9
:101940004146FFF7A3FA0137061EEED14B46E85495
:101950000023002C07D0EA5C295DE9542A550133A5
:10196000013CA342F7DB281C0AB01CBC90469946F8
:10197000A246F0BD2C700020F6E7C04614220000FD
:1019800010B5064C2378002B07D1054B002B02D055
:10199000044800E000BF0123237010BDF4070010CD
:1019A000000000006823000008B5084B002B03D09E
:1019B0000748084900E000BF07480368002B00D132
:1019C00008BD064B002BFBD09847F9E7000000004C
:1019D00068230000F8070010340400100000000025
:1019E0007374617274696E67206D61696E0D0A00AF
:1019F000657272200052494E474255465F46554C2B
:101A00004C210055415254544D504255465F465565
:101A10004C4C2100001BB700000000007374617281
:101A200074696E672075310D0A002073656C6563FB
:101A300074205769466920415020003C666F726DE2
:101A4000206D6574686F643D22706F7374223E0070
:101A50003C696E707574206E616D653D22776966B4
:101A60006941702220747970653D22726164696FEA
:101A7000222076616C75653D20002028003C627252
:101A80003E003C703E3C696E7075742074797065E0
:101A90003D227375626D6974223E3C2F703E003C9E
:101AA0002F666F726D3E3C2F73656374696F6E3E77
:101AB0003C2F6469763E00415353455254494F4E82
:101AC00021210D0A002C3A00636F6E4E756D2000C7
:101AD0002073746172742072656376206D73672061
:101AE00077697468206C656E677468200020616E89
:101AF00064200020636861727320616C72656164A8
:101B0000792072656376640D0A002B43494653526F
:101B10003A41504950002B43494653523A41504DA7
:101B20004143002B43494653523A535441495000D4
:101B30002B43494653523A5354414D4143003A28AE
:101B400022002C2829002B495044002B434946539E
:101B500052002B43574C4150002C434F4E4E4543AF
:101B6000540D0A002C434C4F5345440D0A00534575
:101B70004E44204F4B0D0A003E200D0A002121212A
:101B800053454E445F52454144592121210D0A00DD
:101B90005749464920474F542049500D0A0057499C
:101BA000464920444953434F4E4E4543540D0A0085
:101BB00072656164790D0A00415445300D0A004197
:101BC000542B4349504D55583D310D0A0041542B7B
:101BD0004349505345525645523D312C38300D0A39
:101BE0000041542B43494653520D0A0041542B43A4
:101BF000574C41500D0A00206D6573736167652075
:101C0000726563766421200D0A0041542B434950CC
:101C100053454E443D002C004552524F52205245F0
:101C20004356204D5347210D0A00203D3E20002001
:101C3000726E2000206368730D0A00206E6F74209E
:101C40005445585420747970650D0A0041542B4353
:101C50004950434C4F53453D003C68746D6C3E20E9
:101C60003C686561643E3C7469746C653E414949F9
:101C7000532041534B55453C2F7469746C653E3C71
:101C80007374796C653E0D0A2E74616273207B203B
:101C90006D696E2D77696474683A203332307078DC
:101CA0003B206D61782D77696474683A2038303054
:101CB00070783B2070616464696E673A2030707898
:101CC0003B206D617267696E3A2030206175746FD8
:101CD0003B207D0D0A73656374696F6E207B206401
:101CE0006973706C61793A206E6F6E653B2070612C
:101CF0006464696E673A20313570783B20626163B5
:101D00006B67726F756E643A20236666663B20626D
:101D10006F726465723A2031707820736F6C6964F9
:101D200020236464643B7D0D0A23746162312C209E
:101D300023746162322C2023746162332C2023745B
:101D4000616234207B646973706C61793A206E6FD4
:101D50006E653B7D0D0A2E74616273206C61626555
:101D60006C207B20646973706C61793A20696E6CB9
:101D7000696E652D626C6F636B3B206D6172676984
:101D80006E3A20302030202D3170783B2070616415
:101D900064696E673A203135707820323570783B4F
:101DA00020666F6E742D7765696768743A203630E7
:101DB000303B20746578742D616C69676E3A2063DE
:101DC000656E7465723B20636F6C6F723A2023619D
:101DD00061613B20626F726465723A2031707820D5
:101DE000736F6C696420236464643B206261636B7D
:101DF00067726F756E643A20236631663166313BD7
:101E000020626F726465722D7261646975733A2025
:101E100033707820337078203020303B207D2E7452
:101E2000616273206C6162656C3A6265666F7265AF
:101E3000207B20666F6E742D66616D696C793A2027
:101E4000666F6E74617765736F6D653B20666F6E4C
:101E5000742D7765696768743A206E6F726D616C76
:101E60003B206D617267696E2D72696768743A20F4
:101E7000313070783B7D2E74616273206C616265D5
:101E80006C3A686F766572207B636F6C6F723A2074
:101E9000233838383B637572736F723A20706F69FC
:101EA0006E7465723B7D2E7461627320696E70750D
:101EB000743A636865636B6564202B206C616265AE
:101EC0006C207B20636F6C6F723A20233535353B75
:101ED00020626F726465723A2031707820736F6C83
:101EE000696420236464643B20626F726465722DB0
:101EF000746F703A2031707820736F6C696420239E
:101F00003030393933333B20626F726465722D6231
:101F10006F74746F6D3A2031707820736F6C6964E0
:101F200020236666663B206261636B67726F756E25
:101F3000643A20236666663B7D23746162313A63AE
:101F40006865636B6564207E2023636F6E74656EC5
:101F500074312C2023746162323A636865636B6567
:101F600064207E2023636F6E74656E74322C202390
:101F7000746162333A636865636B6564207E202315
:101F8000636F6E74656E74332C2023746162343A0F
:101F9000636865636B6564207E2023636F6E746580
:101FA0006E7434207B646973706C61793A20626C62
:101FB0006F636B3B7D406D6564696120736372651F
:101FC000656E20616E6420286D61782D7769647478
:101FD000683A20343030707829207B2E7461627327
:101FE000206C6162656C207B70616464696E673A25
:101FF00020313570783B7D7D0D0A3C2F7374796CF0
:10200000653E0D0A0D0A3C2F686561643E203C6206
:102010006F64793E3C64697620636C6173733D2222
:1020200074616273223E3C696E7075742069643D10
:1020300022746162312220747970653D227261647C
:10204000696F22206E616D653D227461627322208A
:10205000636865636B65643E3C6C6162656C2066B9
:102060006F723D227461623122207469746C653D27
:1020700022696E666F223E696E666F3C2F6C6162EC
:10208000656C3E3C696E7075742069643D227461B4
:1020900062322220747970653D22726164696F2218
:1020A000206E616D653D2274616273223E3C6C61FD
:1020B00062656C20666F723D227461623222207408
:1020C00069746C653D22737461747573223E737418
:1020D000617475733C2F6C6162656C3E3C696E7017
:1020E00075742069643D22746162332220747970B2
:1020F000653D22726164696F22206E616D653D22CB
:1021000074616273223E3C6C6162656C20666F7222
:102110003D227461623322207469746C653D2273C0
:10212000657474696E6773223E73657474696E6753
:10213000733C2F6C6162656C3E3C73656374696FC0
:102140006E2069643D22636F6E74656E7431223E49
:102150003C703E636F6E74656E74313C2F703E3C14
:102160002F73656374696F6E3E3C73656374696F4A
:102170006E2069643D22636F6E74656E7432223E18
:102180003C703E636F6E74656E74323C2F703E3CE3
:102190002F73656374696F6E3E3C73656374696F1A
:1021A0006E2069643D22636F6E74656E7433223EE7
:1021B0003C703E636F6E74656E74333C2F703E00EE
:1021C0003C2F626F64793E3C2F68746D6C3E0D0A43
:1021D0000000000000000000C0270900900510006A
:1021E000C05C1500F0B31A00200B2000009F2400F3
:1021F000E0322900C0C62D0050973100E06735005D
:102200007038390000093D0040164000802343002B
:10221000C0304600303132333435363738396162B8
:10222000636465666768696A6B6C6D6E6F70717206
:10223000737475767778797A00000000002020208A
:102240002020202020202828282828202020202066
:102250002020202020202020202020202088101036
:102260001010101010101010101010101004040492
:102270000404040404040410101010101010414150
:10228000414141410101010101010101010101013E
:102290000101010101010101101010101010424252
:1022A000424242420202020202020202020202020E
:1022B00002020202020202021010101020000000AE
:1022C000000000000000000000000000000000000E
:1022D00000000000000000000000000000000000FE
:1022E00000000000000000000000000000000000EE
:1022F00000000000000000000000000000000000DE
:1023000000000000000000000000000000000000CD
:1023100000000000000000000000000000000000BD
:1023200000000000000000000000000000000000AD
:10233000000000000000000000000000000000009D
:1023400043000000F8B5C046F8BC08BC9E46704784
:10235000A9190000F8B5C046F8BC08BC9E467047F5
:0823600050EDFF7F01000000B9
:10236800010000003C22000000000000F402001000
:102378005C030010C403001000000000000000000F
:102388000000000000000000000000000000000045
:1023980000000000000000000000000040230000D2
:1023A8000000000000000000000000000000000025
:1023B8000000000000000000000000000000000015
:1023C8000000000000000000000000000000000005
:1023D80000000000000000000000000000000000F5
:1023E80000000000000000000000000000000000E5
:1023F80000000000000000000000000000000000D5
:1024080000000000000000000000000000000000C4
:1024180001000000000000000E33CDAB34126DE661
:10242800ECDE05000B0000000000000000000000CA
:102438000000000000000000000000000000000094
:102448000000000000000000000000000000000084
:102458000000000000000000000000000000000074
:102468000000000000000000000000000000000064
:042798000800001025
:0400000300000103F5
:00000001FF
