:100000000010001003010000D5000000D700000020
:1000100000000000000000000000000000000000E0
:10002000000000000000000000000000D9000000F7
:100030000000000000000000DB000000AD02000036
:10004000DF000000DF00000000000000DF00000013
:1000500075020000DF00000000000000000000004A
:10006000DF000000DF000000DF000000DF00000014
:10007000DF000000DF00000000000000DF000000E3
:100080000000000000000000000000000000000070
:100090000000000000000000000000000000000060
:1000A000DF000000DF000000DF000000DF000000D4
:1000B000DF000000DF000000DF000000DF000000C4
:1000C000342B000000000010340400003404001041
:1000D000E0030000FEE7FEE7FEE7FEE7FEE7FEE7DF
:1000E000002310B5934203D21C585C500433F9E747
:1000F00010BD00238B4203D200221A500433F9E7CB
:10010000704710B50D4C0E4B9C4206D220686168BA
:10011000A268FFF7E5FF0C34F5E70A4B9C4205D2D5
:1001200020686168FFF7E5FF0834F6E701F08AF818
:1001300001F0ECFB00F05AF8FEE7C046C0000000FA
:10014000CC000000D4000000F7B5224C224D2178ED
:100150002248691801F002F82E1C002839D02178B5
:100160006B5C4A1C0A2B04D02B783E2B14D101293E
:1001700012D10027D2B2311C1948AF54227001F0BD
:10018000B8F86B46DD1D1323281C311C2B7000F0C2
:1001900009FB2878217816E0124B00201B5E002B0B
:1001A00015DD013B994212D10027D2B20C480E490D
:1001B0002270AF5400F084F8311C2278084801F016
:1001C00098F80D20217800F027FC2770BDE72270F9
:1001D000BBE7F7BD490500103404001034050010DA
:1001E00000400640F2070010941E000010B500F019
:1001F00073F88023154916480122DB0000F08EFFBA
:100200001448154900F05CF8FFF79EFF134C237863
:10021000002B16D00F48124900F052F82378DB0764
:1002200003D50C480F4900F04BF823789B0703D502
:1002300008480D4900F044F806480C4900F040F821
:10024000FEE70B4A136801331360DDE71408001062
:100250003405001000400640A81E000048050010AC
:10026000B81E0000BD1E0000CB1E0000A51E000031
:100270004C05001013B50124094B9A6822420DD099
:100280006A465B69D11D07480B7000F04FFF0028DC
:10029000F1D1054A137823431370ECE713BDC04630
:1002A00000800640340500104805001008B50248DB
:1002B000024900F005F808BD00400640941E000009
:1002C00038B5051C081C0C1C01F03AFC211C021C52
:1002D000281C01F00EF838BDF8B5022000F07CFFB4
:1002E000002000F049FE002000F03CFE4B4B802037
:1002F0001A6901221A6100F05DFF2423484C802016
:10030000A36000F069FF231C0124DA682242FBD0BD
:10031000A025434B2D069C67032000F02DFE00F026
:1003200019FE281C00F0F0FE802280219201AB58BB
:1003300089020B43AB5080223A4F6C74FB6F3A4DED
:100340001B031B0B1343FB67384B281C1C6000F07E
:100350007DFF2B68364AE1201340042213432B60B3
:10036000211C400300F096FEE121281C490200F008
:10037000D2FF08202B682F4A2F49134023432B60BC
:100380006B682E4A2E4E1340473AFF3A6B608B58EB
:10039000DB05DB0D23438B508B58DB05DB0D034363
:1003A0008B5000200B2100F0F1FE201C022100F0F8
:1003B000EDFE301C00F04AFF33681D4AE120134077
:1003C000042213433360211C400300F063FEE1214B
:1003D000301C490200F09FFF3368164A1120134079
:1003E000234333607368154A0C211340736000F097
:1003F000CDFE12200D2100F0C9FEFA6F114B281C12
:1004000013401022FB67104BF4601A608022120622
:100410001A600E49FFF754FFF8BDC04600000440C3
:100420000080044004800440004006409480044062
:1004300001DA00007CDA000000C000400603000082
:10044000008006407FFF0F0000E100E0E41E000096
:10045000F0B5314C85B03149201C01F069FB3049C1
:10046000201C01F0F9FA201C2E4901F0F5FA2E4E5D
:100470002E4B751CF6180023EB56002B26D02C496A
:100480006F1C201C01F0E8FA391C201C01F0E4FA72
:100490002849201C01F0E0FA391C201C01F0DCFA8C
:1004A0002549201C01F0D8FA00200A2201A928566B
:1004B00001F068FA01A9201C01F0CEFA1F49201CA6
:1004C00001F0CAFA201C1E4901F0C6FA2A35B542CD
:1004D000D1D11C49201C01F0BFFA1B49201C01F09E
:1004E000BBFA201C01F02CFB184B984204D9184889
:1004F0001849FFF7E5FEFEE7174801F021FB051C50
:100500001648673001F01CFB4519201C01F018FB50
:10051000281805B0F0BDC046140C0010401F0000A4
:10052000F21E0000031F00007A0500107702000091
:10053000181F0000421F0000451F00001E20000081
:10054000481F00004D1F00006A1F0000E703000065
:1005500000400640821F00008C2300008C28000011
:1005600070B5124E0024311C01F01EFB051C002D3D
:100570001AD0012C10D1281C0D4901F095FA002841
:1005800002D10C4B187007E0281C0B4901F08CFAC3
:10059000002801D1074B1C700020311C01F004FB26
:1005A0000134051CE4B2E2E770BDC046401F000004
:1005B000901F000064050010921F0000F0B589B084
:1005C00002912F490024171C01F0EEFA251C061C8D
:1005D0002B4B01940393002E1DD0022D09D0032D27
:1005E0000CD0012D0FD1301C01F08AF9029B18703C
:1005F00009E0301C01F084F9388004E0301C01F07F
:100600009FFA019684B20020039901F0CDFA0135DA
:10061000061CEDB2DFE70198FFF7A2FF19481A495F
:10062000FFF74EFE029B0A22187805A901F0AAF9ED
:1006300005A91448FFF744FE12481449FFF740FE8D
:100640000A2205A90023F85E01F09CF905A90D48CE
:10065000FFF736FE0B480E49FFF732FE0A2205A9C6
:10066000201C01F08FF905A90648FFF729FE05486F
:100670000849FFF725FE3888041B3C8009B0F0BD0F
:100680009F1F000000400640A21F0000AA1F00009C
:10069000C71F0000CD1F000038B5204D041C281CCA
:1006A00001F04EFA291C421E201C01F06FF90028AF
:1006B00006D1211C1A480C3101F03AFA05232AE030
:1006C000184D281C01F03CFA291C421E201C01F088
:1006D0005DF9062300281ED0134D281C01F030FAC6
:1006E000291C421E201C01F051F9002806D1211CB2
:1006F0000E480D3101F01CFA07230CE00C4D281CAC
:1007000001F01EFA291C421E201C01F03FF91323A0
:10071000002800D10B3B181C38BDC046E41F000068
:1007200065050010F01F0000FD1F000050050010BF
:100730000A200000F8B5174901F036FA0025041C1C
:10074000154E3778002C21D0022D0AD0032D15D15B
:10075000201C01F0D5F82A237B43104AD318587087
:100760000CE0201C01F0ECF92A237B430B4A611CAE
:10077000D3180233821E181C01F030F900200849FA
:1007800001F012FA0135041CEDB2DBE733780133D6
:100790003370F8BD18200000F00700107A05001033
:1007A0001C200000132370B503700B78051C0C1C73
:1007B0002B2B48D15F4E301C01F0C2F9311C421E78
:1007C000201C01F0E3F8002806D1201C5A495B4A9E
:1007D000FFF7F4FE042334E0594E301C01F0B0F969
:1007E000311C421E201C01F0D1F8002804D1201C2D
:1007F000FFF752FF28709BE0524E301C01F0A0F929
:10080000311C421E201C01F0C1F8002803D1201C1D
:10081000FFF790FF8CE0301C01F092F9311C421E72
:10082000201C01F0B3F80028F1D0474E301C01F035
:1008300087F9311C421E201C01F0A8F8002877D14E
:1008400009232B7074E0081C01F07AF9042807D101
:10085000201C3E4901F028F90A230028F1D067E066
:10086000201C01F06DF90B2807D1201C384901F03C
:100870001BF910230028E4D05AE0661C301C3549CF
:1008800001F012F90B230028DBD0301C324901F0B3
:100890000BF90C230028D4D0201C304901F004F9B6
:1008A0000E230028CDD0201C2D4901F0FDF8002892
:1008B00005D12C482C49FFF703FD0F23C1E7201C6D
:1008C0002A4901F0F1F803230028BAD0201C284956
:1008D00001F0EAF801230028B3D0201C254901F0DB
:1008E000E3F800230028ACD0201C234901F0DCF8F9
:1008F00011230028A5D0214E301C01F021F9311C14
:10090000421E201C01F042F81223002899D00D232A
:100910002B700A4B00229B5E002B09D1201C18492A
:1009200001F0C2F8002803D00E481649FFF7C8FCB2
:1009300070BDC0462020000079050010F2070010AD
:10094000252000002C200000332000006120000042
:100950003B20000047200000522000005C200000E7
:1009600066200000004006406B2000007E20000052
:100970008C2000009E200000421F0000A6200000E6
:10098000A51E0000AB20000037B500251D4C2570CA
:1009900061191D4800F0E2FB0028F9D0635D6A1C74
:1009A0000A2B04D023783E2B12D1012D10D1002325
:1009B000D2B2211C1548A35400F09BFC6B46DD1DF0
:1009C0001323281C211C2B70FFF7ECFE287817E05E
:1009D0000F4B00215B5E002B10DD013B9D420DD1D2
:1009E0000023D5B209480B496355FFF769FC074856
:1009F000211C2A1C00F07DFC132001E0D5B2C7E7C2
:100A00003EBDC046340400103405001000400640CE
:100A1000F2070010941E0000F0B5D04D85B00C28F0
:100A200001D107232B702A78013A142A00D96CE2ED
:100A3000041C101C00F07AFC1500230034003D005B
:100A400046002C004A004F004600660246000601A0
:100A50001901240184010102390269026902690253
:100A60004B02002C02D1BE48BE49E8E00A2C00D05F
:100A70004BE2BB48BC49FFF723FC022340E20A2CAF
:100A800000D042E2B648B949FFF71AFC062337E224
:100A90000A2C05D1B248B649FFF712FC03232FE216
:100AA000092C00D031E2AE48B249FFF709FC04231B
:100AB00026E20A2C00D028E2A948AF49FFF700FC43
:100AC00005231DE20A2C00D01FE2CCE00823042CF1
:100AD00000D01AE214E20D2C00D0AEE0A74A138831
:100AE00018B2002800DC10E2591A89B211800029DE
:100AF00000D09BE0A248A349FFF7E2FBA24BA34E24
:100B00001B78A34FA34C002B46D1311C9448FFF710
:100B1000D7FB311C9A48FFF7D3FB0A2201A938788A
:100B200000F030FF8E4801A9FFF7CAFB944801A9E5
:100B3000FFF7C6FB211C8A48FFF7C2FB211C904827
:100B4000FFF7BEFB944C201C783000F0F9FF0A221E
:100B500001A900F017FF824801A9FFF7B1FB8848FF
:100B600001A9FFF7ADFB8D4E7D48311CFFF7A8FBB7
:100B70008348311CFFF7A4FBFFF706FF112804D0C0
:100B80000C28F9D17E4886496BE086497C48FFF7FE
:100B900097FB211C783147E079488349FFF790FBA8
:100BA000311C6F48FFF78CFB311C7548FFF788FB41
:100BB0000A2201A9387800F0E5FE694801A9FFF78B
:100BC0007FFB6F4801A9FFF77BFB211C6448FFF7FF
:100BD00077FB211C6A48FFF773FB744C201C7A30AA
:100BE00000F0AEFF0A2201A900F0CCFE5C4801A98A
:100BF000FFF766FB624801A9FFF762FB674E5848A2
:100C0000311CFFF75DFB5E48311CFFF759FBFFF716
:100C1000BBFE112802D00C28F9D1B3E7644958482B
:100C2000FFF74EFB211C7A314D481AE009B200292A
:100C300000DB6AE152485F495EE051485E49FFF7D8
:100C40003FFB62E1112C07D14D485949FFF738FBB2
:100C5000564943487A31F2E70E2C00D055E1484816
:100C60005649FFF72DFB07234AE1112C00D04CE138
:100C700043484F49FFF724FB47493948783155E04D
:100C80000A2C3DD13E484E49FFF71AFB3F4E3448EF
:100C9000311CFFF715FB311C3948FFF711FB3C4BAA
:100CA000221C187801A900F06DFE2D4801A9FFF75C
:100CB00007FB334801A9FFF703FB364E2848311CD8
:100CC000FFF7FEFA311C2E48FFF7FAFA3D4800F014
:100CD00037FF221C01A900F055FE214801A9FFF7AA
:100CE000EFFA274801A9FFF7EBFA2C4C1C48211C0E
:100CF000FFF7E6FA211C2248FFF7E2FA0F23FFE094
:100D0000102C17D11E483049FFF7DAFA14482F4942
:100D1000FFF7D6FA1E4B01A918780A2200F032FE1E
:100D20000F4801A9FFF7CCFA0D481C49FFF7C8FA94
:100D30000A23E5E00E2C00D0E7E0114824497EE7C5
:100D40000A2C02D10E48234979E7112C44D10C48D2
:100D50001749FFF7B5FA02481A4970E7000000107A
:100D600000800640C1200000C8200000D6200000FE
:100D7000EA200000F720000002210000F207001026
:100D8000004006400D2100006405001020210000F5
:100D9000790500102C2100008C280000A51E000001
:100DA0002E2100003F210000502100000C290000EE
:100DB000652100008F210000A1210000B221000068
:100DC000CD2100008C230000F42100001B22000034
:100DD0002822000050220000102C02D14C484D491E
:100DE0002DE70E2C00D090E04B494948FFF768FAF8
:100DF000FFF72EFB49484A49FFF762FA494B0A229E
:100E0000187801A900F0BEFD444801A9FFF758FA7F
:100E100045494248FFF754FA444800F091FE0A223F
:100E200001A900F0AFFD3D4801A9FFF749FA3B4891
:100E30003F49FFF745FA102362E00A2C02D13448FB
:100E40003C49FCE6112C06D131483B49FFF738FA02
:100E500032483649F3E60E2C57D12D483749FFF773
:100E60002FFA2E482E49FFF72BFA2E4B0A2218781C
:100E700001A900F087FD294801A9FFF721FA2A49B5
:100E80002648FFF71DFA2E48673000F059FE0A2267
:100E900001A900F077FD214801A9FFF711FA1F48C9
:100EA0002349FFF70DFA11232AE00A2C02D1184832
:100EB0002449C4E6112C28D115482349FFF700FA2C
:100EC0001F4916486731FFF7FBF9152318E00E2C70
:100ED0001BD10F481D49FFF7F3F910481C49FFF7D4
:100EE000EFF9104B0A22187801A900F04BFD0B48CE
:100EF00001A9FFF7E5F909480D49FFF7E1F90B23CF
:100F00002B7002E00E2C00D1ADE605B0F0BDC0465E
:100F1000004006406F22000086220000008006404C
:100F200020210000790500102C210000140C001075
:100F3000A51E0000AA220000CD220000F72200001A
:100F40008C2800001B2300003E23000068230000C3
:100F50001B22000008B500F06DF8014B186008BDB9
:100F6000100800100022034B18645A6401325A64BE
:100F70007047C046008004400022034B18675A6740
:100F800001325A677047C0460080044008B5074BDD
:100F9000596A1F23CA05120F1940054B92000131EF
:100FA0004900D05800F0CCF908BDC046008004408C
:100FB000A0290000084B1A6C03231340012B06D014
:100FC000032B06D00020002B05D1044803E0044B7E
:100FD00000E0044B1868704700800440001BB70015
:100FE000DC1E0000E01E0000044B10B59C68FFF7FB
:100FF000E1FF1F2323400133584310BD008004400C
:1010000008B50A4B1A6F03231340022B06D0032B9B
:1010100007D0012B08D1FFF7CDFF06E0FFF7B6FFA1
:1010200003E0FFF7E1FF00E0014808BD0080044055
:10103000001BB70008B5FFF7E3FF034B996FC9B278
:1010400000F07EF908BDC0460080044038B500209D
:10105000FF240D4B1D682540854213D0FFF7D0FFBC
:10106000291C00F06DF9094B1A681440FF2C09D1B6
:10107000074B010E1A6800021440621CFF32002365
:1010800000F0F0F938BDC04694800440F080044080
:10109000F4800440F8B5051C0F1CFFF7B1FF291CB4
:1010A000061C00F04DF9011E00D10131FF24081C7F
:1010B000104B20401860104A1048002F15D0576878
:1010C0000F4B3B40042753605368DB04DB0C3B436E
:1010D00053600460301C00F033F9291C000200F05A
:1010E0002FF9084B04401C6000E00760FFF7AEFFDB
:1010F000F8BDC0469480044000800440F080044065
:10110000FB1F0000F48004404021034AD36F1B03FF
:101110001B0B0B43D36770470480044043600023DC
:10112000016082600361C3600120704738B5041C10
:10113000C268056863680069121A00209A420CDAD6
:10114000E068013B1840A368A2684343E81800F038
:1011500045FC0120E3680133E36038BD38B5C5685C
:101160000369041C026800209D420ED06368081CBD
:101170002169013B0B40A1684B43D118A26800F0E4
:101180002DFC012023690133236138BD0F2310B5E5
:10119000FF240340DB009C40054A000980008018C2
:1011A00002689940A243131C0B43036010BDC04664
:1011B00000C000408E22054992008B581843044B12
:1011C0001840044B184388507047C04600800440C4
:1011D000EF800000106D00008E2110B5054C8900D5
:1011E0006358054A134002409343044A1343635033
:1011F00010BDC04600800440EF800000106D00006C
:1012000010B50220FFF7E8FF0020FFF7ABFE0B4B05
:1012100080201A6901221A61FFF7CCFF4123084C94
:101220008020A360FFF7D8FF0123E2681A42FBD0B9
:10123000034A03209367FFF79FFE10BD00000440A0
:101240000080044008B5FFF7DBFF08BD70B51A4CFD
:101250000E21A04205D0194BC1184A42514110231A
:10126000591A01268E40164D164BEA6F1203120BC7
:101270003243EA67A04208D15968134A0A405A60CB
:101280005A680821D204D20C12E0104A59689042E0
:1012900007D10F4A0A405A605A681021D204D20C72
:1012A00006E00C4A0A4020215A605A68D204D20C47
:1012B0000A435A6070BDC046004006400080F9BF36
:1012C0000480044000800440F71F000000800640B6
:1012D000EF1F0000DF1F0000002310B5934206DA65
:1012E0008468640703D5CC5C0133C461F6E7181C3D
:1012F00010BDF8B5071C0E1C141C0025002C08DDC1
:10130000311C221C381CFFF7E7FF241A2D18361851
:10131000F4E7281CF8BD38B50C1C051CFFF796FE39
:10132000210100F00DF80138286238BD03B4714680
:10133000490840004900095A49008E4403BC7047DF
:10134000002243088B4274D303098B425FD3030A04
:101350008B4244D3030B8B4228D3030C8B420DD317
:10136000FF22090212BA030C8B4202D312120902A5
:1013700065D0030B8B4219D300E0090AC30B8B42E3
:1013800001D3CB03C01A5241830B8B4201D38B0391
:10139000C01A5241430B8B4201D34B03C01A524136
:1013A000030B8B4201D30B03C01A5241C30A8B4279
:1013B00001D3CB02C01A5241830A8B4201D38B0264
:1013C000C01A5241430A8B4201D34B02C01A524108
:1013D000030A8B4201D30B02C01A5241CDD2C3097A
:1013E0008B4201D3CB01C01A524183098B4201D3F6
:1013F0008B01C01A524143098B4201D34B01C01AE1
:10140000524103098B4201D30B01C01A5241C30858
:101410008B4201D3CB00C01A524183088B4201D3C7
:101420008B00C01A524143088B4201D34B00C01AB3
:101430005241411A00D20146524110467047FFE71F
:1014400001B5002000F00CF802BDC0460029F7D01D
:1014500003B5FFF775FF0EBC4243891A1847C04613
:101460007047C046002B11D1002A0FD1002900D1AE
:10147000002802D00021C943081C07B4024802A179
:101480004018029003BDC046D9FFFFFF03B4684671
:1014900001B5029800F022F8019B9E4602B00CBCF8
:1014A0007047C046F0B583B0161C1F1C0090019118
:1014B00000F058F8041C0D1C221C2B1C301C391C7D
:1014C00000F026F8009A019B121A8B410899201C03
:1014D0000A604B60291C03B0F0BDC046F0B5141C77
:1014E00083B01D1C0090019100F034F9221C2B1CCC
:1014F000061C0F1C00F00CF8009A019B121A8B417D
:101500000899301C0A604B60391C03B0F0BDC0461E
:10151000F0B54F46464605042D0C2C1CC0B41704EC
:10152000160C3F0C9946030C7C4375435F43734391
:101530007D19260CAD199C46AF4203D980235B026E
:101540009846C4444B465143434324042E0C240C78
:101550002D0466442C1959188919201C0CBC90467E
:101560009946F0BDF0B544465F4656464D46F0B448
:101570001C1C85B0002900DAA9E00F1C0021061C04
:101580008846101C191C002C00DA97E0341C3D1C06
:1015900082468946B94273D870D04946504600F019
:1015A00085F98346391C301C00F080F95B46181A17
:1015B000031C8346203B9C4600D59CE00023002270
:1015C00051460092019363469940019151468140F2
:1015D000019B0091BB4200D983E000D17EE0009ADC
:1015E000019B341C3D1CA41A9D416346002B00DA6C
:1015F0009AE0002600270296039701369E40039644
:10160000012686400296002800D171E00099019AD7
:10161000D30799464B464E081E4357080023012224
:101620000CE0AF4201D1A6420AD8A41BBD41241947
:101630006D410138A4185D41002806D0AF42F0D9B1
:10164000013824196D410028F8D12022029E039F01
:101650005B46524236196F4199185AD4281CC8402B
:101660002C1C5B46DC40002968DB041C8C40231CDE
:1016700059468840021CB61A9F4103E0B0428CD9FB
:101680000026002741464B1E9941002300910193FB
:10169000009A019B002554429D41331C6340181C55
:1016A0003B1C6B40191C009B019CC018614105B09C
:1016B0003CBC90469946A246AB46F0BD4346DB4350
:1016C0000C1C9846131C00215842A1415EE70027DC
:1016D00046428F4101214942884652E7B14200D833
:1016E0007DE70026002702960397002800D08DE7AB
:1016F000029E039FC6E720215346091ACB400022D1
:10170000191C0023009201934B4683400B43019325
:101710005CE75A4620239B1A2A1C9A40201C131C63
:101720005A46D04018439BE720260027331A00264C
:10173000029603970127DF40039761E75B4620216C
:101740005D46C91A031CAC40CB40191C231C0B433B
:101750008EE7C046F0B545464E465746E0B4041CF9
:1017600082B00D1C914698468B4262D85FD04146AC
:10177000484600F09BF8291C061C201C00F096F837
:101780002023311A5B428A46C81865D44B468340F1
:101790001F1C4B468B401E1CAF4258D855D0A41B73
:1017A000BD41002800DA77E0002200230092019377
:1017B00001328240019201238B40009300293CD0EA
:1017C000FB079846404672087B0802430126002723
:1017D0000CE0AB4201D1A2420AD8A41A9D412419BF
:1017E0006D410139A4197D41002906D0AB42F0D9E1
:1017F000013924196D410029F8D12022009801995E
:1018000053465242001969419E183AD42F1CF740A2
:101810005346DD40002E29DB3C1CB440231C5446BB
:10182000A7403A1C801A99410090019105E082423C
:101830009DD900230024009301940098019902B0DF
:101840001CBC90469946A246F0BDA342A7D90022EF
:10185000002300920193B1E720224B46521AD34055
:101860001A1C43468B401F1C174392E75346202403
:101870005646E41A3B1CB540E3401C1C2B1C23437A
:10188000CDE7524620239B1A2A1C9A40271C131C82
:101890005246D7401F43BBE720230022581A00239B
:1018A000009201930132C240019284E710B50029F1
:1018B00003D100F007F8203002E0081C00F002F825
:1018C00010BDC0461C2101231B04984201D3000C0B
:1018D00010391B0A984201D3000A08391B099842A3
:1018E00001D30009043902A2105C40187047C046B9
:1018F00004030202010101010000000000000000D9
:1019000008B500210A2200F041FA08BD70B50D4E5D
:101910000D4D0024AD1BAD1005D0A300F3580134CC
:101920009847A542F9D101F0F3F8084E084D00247C
:10193000AD1BAD1005D0A300F35801349847A54264
:10194000F9D170BD1C2B00001C2B00001C2B0000CB
:10195000202B0000931E10B5222B0FD80A2A06D088
:1019600000230C1CC91800F01FFA201C10BD002811
:10197000F6DA2D2340420B702C3BF2E700230020C7
:101980000B70F3E708B5FFF7E5FF08BD30B5032A94
:101990001ED9031C0B439B0711D004780D784B1CF8
:1019A0008A18AC4206D016E00133591E04780D782F
:1019B000AC4210D101309342F6D1002030BD036813
:1019C0000C68A34204D1043A04300431032AF6D847
:1019D000002AE2D1F1E7601BF0E7C04670B50F2A9C
:1019E00032D9041C0C430B1CA40731D1151C041C58
:1019F000103D2D0901352D0149191E6826605E68CC
:101A000066609E68A660DE681033E6601034994216
:101A1000F3D10F2345191340032B1BD91C1F00239F
:101A2000A4080134A400CE58EE500433A342FAD1E6
:101A3000ED18C91803231A4005D00023CC5CEC54E0
:101A400001339342FAD170BD051C002AF5D1FAE7A3
:101A5000051CF2E71A1CF8E738B5051CAB0716D1D0
:101A60002A680F4B0F4CD3189343234216D10430EE
:101A700002680B4BD3189343234208D10430026809
:101A8000074BD31893432342F1D000E00130037891
:101A9000002BFBD100F04CF8281C38BD281CF6E7C1
:101AA000FFFEFEFE80808080024670B50A439207EA
:101AB0002AD11E4DEE0104C808C9541B944334407A
:101AC00017D0D0B2D9B2401A2106014310D190B23A
:101AD00099B2401A210401430AD110021902000AE6
:101AE000090A401A2102014302D1100E190E401AB0
:101AF00070BD9A42DFD010BA19BA884201D90120CC
:101B000070BD0020C04370BD02780B7801300131F8
:101B1000002A09D09A4207D102780B7801300131AE
:101B2000002A01D09A42EFD0D01A70BD0101010104
:101B3000031C0A7801311A700133002AF9D1704769
:101B400010B5830727D00378002B26D0031C032170
:101B500002E01A78002A1CD001330B42F9D119682F
:101B60000F4A104C8A188A4322420FD10433196855
:101B70000B4A8A188A43224208D104331968084A5A
:101B80008A188A432242F1D000E001331A78002AF1
:101B9000FBD1181A10BD031CE1E70020FAE7C0468C
:101BA000FFFEFEFE8080808008B5034B1A6801238B
:101BB0005C3200F003F808BD30040010F0B50028D6
:101BC00023D0471C06780C1C02E00134AE4214D02E
:101BD0002578002DF9D1002E1CD07E1C3D780B1CE1
:101BE00002E00133002C0CD01C78AC42F9D1002D5E
:101BF00009D000233B701660F0BD002B0DD0381CBF
:101C0000DFE7371CE9E70026F5E710680028D8D1A0
:101C10000020F1E716600020EEE717600370EBE7A5
:101C2000F0B54D4656465F464446F0B41E1C554B33
:101C300085B002911D6803900B1C9146082100E0BD
:101C40003B1C1C785F1C2A1952781142F8D12D2CAC
:101C500069D0002290462B2C00D173E0002E04D0D6
:101C6000102E00D171E0321C05E0302C00D17DE057
:101C70000A230A261A1C444B111C4344181C924682
:101C80009B46FFF7E3FB584601915146FFF758FB8F
:101C900004228446D3469246321C3B1C2E1C002054
:101CA0006546002194460DE0303CA44518DD421CF9
:101CB00006D0A9422ED82AD05A4601205143611895
:101CC0001C7801335746321952781742ECD103275A
:101CD0003A4005D0012A20D05722A41AA445E6DCB8
:101CE000421C25D04246524251400A1C49464244B9
:101CF000002944D0002813D1101C029B4A461360CF
:101D000005B03CBC90469946A246AB46F0BD019A50
:101D10009442D1DD01204042D2E73722A41ADDE708
:101D2000101C013BEAE79F1C5C780123984695E76D
:101D30002222039914480A604A464044002ADFD010
:101D4000013BDBE79F1C5C7888E710231A1C302CD2
:101D500000D090E73B7810329343582B00D082E7B5
:101D600010237C781A1C0237102684E720223B7847
:101D70009343582BF4D0082308261A1C7BE7101C29
:101D8000BEE7C04604000010FFFFFF7F38B5051C0A
:101D90000C1C131C034A291C1068221CFFF740FF6F
:101DA00038BDC04630040010F0B5574645464E4693
:101DB000E0B48AB090466A461D4B0D1C061C13CB3E
:101DC00013C213CB13C213CB13C21B78EA46137092
:101DD0004346023B2F1C0024222B01D924E04C4611
:101DE000631C301C41469946FFF730FB53465B5C51
:101DF000301C3B704146FFF7A3FA0137061EEED1B7
:101E00004B46E8540023002C07D0EA5C295DE954D6
:101E10002A550133013CA342F7DB281C0AB01CBC45
:101E200090469946A246F0BD2C700020F6E7C046C9
:101E3000E029000010B5064C2378002B07D1054B94
:101E4000002B02D0044800E000BF0123237010BD26
:101E5000F407001000000000342B000008B5084B08
:101E6000002B03D00748084900E000BF074803687B
:101E7000002B00D108BD064B002BFBD09847F9E79B
:101E800000000000342B0000F8070010340400109C
:101E9000000000002121212061666665637465648D
:101EA00020212121200D0A007374617274696E670C
:101EB000206D61696E0D0A00657272200052494EF4
:101EC000474255465F46554C4C21005541525454AB
:101ED0004D504255465F46554C4C2100001BB70003
:101EE000000000007374617274696E672075310DB3
:101EF0000A002073656C6563742057694669204148
:101F00005020003C666F726D206D6574686F643D93
:101F100022706F7374223E003C696E707574206E7F
:101F2000616D653D22776966694170222074797020
:101F3000653D22726164696F222076616C75653D32
:101F400020003E20002028003C62723E003C703E93
:101F50003C696E70757420747970653D227375628A
:101F60006D6974223E3C2F703E003C2F666F726D8F
:101F70003E3C2F73656374696F6E3E3C2F646976D7
:101F80003E00415353455254494F4E21210D0A0002
:101F90002F002F66617669636F6E2E69636F002C68
:101FA0003A00636F6E4E756D200020737461727419
:101FB0002072656376206D73672077697468206C82
:101FC000656E677468200020616E6420002063687D
:101FD00061727320616C72656164792072656376E9
:101FE000640D0A002B43494653523A415049500070
:101FF0002B43494653523A41504D4143002B4349EC
:102000004653523A5354414950002B434946535288
:102010003A5354414D4143003A2822002C282900CC
:102020002B495044002B4349465352002B43574CF5
:102030004150002B43495053544F0062757379202F
:10204000732E2E2E0D0A002C434F4E4E4543540D39
:102050000A002C434C4F5345440D0A0053454E444F
:10206000204F4B0D0A003E200D0A0021212153452F
:102070004E445F52454144592121210D0A005749E0
:10208000464920474F542049500D0A0057494649B8
:1020900020444953434F4E4E4543540D0A00726548
:1020A0006164790D0A005265637600212121207553
:1020B0006E6B6E6F776E20636D64212121200D0A97
:1020C00000415445300D0A0041542B4349504D55B1
:1020D000583D310D0A0041542B4349505345525647
:1020E00045523D312C38300D0A0041542B434950A4
:1020F00053544F3F0D0A0041542B43494653520D50
:102100000A0041542B43574C41500D0A00206D6585
:10211000737361676520726563766421200D0A0020
:1021200041542B43495053454E443D002C006465B7
:102130007465637420434C4F534544200D0A00726C
:10214000656164795F746F5F73656E64200D0A006A
:102150006E6F7420524F4F542E2073656E6420347E
:1021600030340D0A002121212068746D6C53656E96
:1021700064302072656164795F746F5F73656E644B
:102180002064657465637465642121210D0A00452E
:1021900052524F522052454356204D5347210D0A6B
:1021A00000206E6F74205445585420747970650D6A
:1021B0000A00212121212073656E6448746D6C34FE
:1021C00030342053454E445F4F4B0D0A00212121EE
:1021D0002068746D6C53656E64546573743020436D
:1021E0004D445F4F4B2064657465637465642121C1
:1021F000210D0A002121212068746D6C53656E64E5
:10220000546573743020627573795F7320646574EC
:1022100065637465642121210D0A0041542B4349F3
:1022200050434C4F53453D002121212068746D6C73
:1022300053656E6454657374302053454E445F4F4C
:102240004B2064657465637465642121210D0A0067
:102250002121212068746D6C53656E6430204F4BD2
:102260002064657465637465642121210D0A002171
:1022700021212062757379206465746563746564D7
:102280002121210D0A002121212068746D6C5365E4
:102290006E64302053454E445F4F4B206465746537
:1022A000637465642121210D0A00212121206874B5
:1022B0006D6C53656E643120434D445F4F4B206419
:1022C000657465637465642121210D0A0021212153
:1022D0002068746D6C53656E643120726561647939
:1022E0005F746F5F73656E642064657465637465A5
:1022F000642121210D0A002121212068746D6C5375
:10230000656E64312053454E445F4F4B20646574C5
:1023100065637465642121210D0A00212121206853
:10232000746D6C53656E643220434D445F4F4B2097
:1023300064657465637465642121210D0A0021219F
:10234000212068746D6C53656E643220726561641F
:10235000795F746F5F73656E642064657465637420
:1023600065642121210D0A002121212068746D6CF2
:10237000436C6F73652053454E445F4F4B2064653B
:102380007465637465642121210D0A003C68746DD5
:102390006C3E203C686561643E3C7469746C653ECB
:1023A000414949532041534B55453C2F7469746C46
:1023B000653E3C7374796C653E0D0A2E74616273E0
:1023C000207B206D696E2D77696474683A20333202
:1023D0003070783B206D61782D77696474683A209D
:1023E00038303070783B2070616464696E673A20E1
:1023F0003070783B206D617267696E3A20302061E1
:1024000075746F3B207D0D0A73656374696F6E2070
:102410007B20646973706C61793A206E6F6E653BE6
:102420002070616464696E673A20313570783B20B2
:102430006261636B67726F756E643A2023666666CD
:102440003B20626F726465723A2031707820736F3E
:102450006C696420236464643B7D0D0A23746162AB
:10246000312C2023746162322C2023746162332C5E
:10247000202374616234207B646973706C61793AE3
:10248000206E6F6E653B7D0D0A2E74616273206C49
:102490006162656C207B20646973706C61793A209D
:1024A000696E6C696E652D626C6F636B3B206D614C
:1024B0007267696E3A20302030202D3170783B20D1
:1024C00070616464696E673A203135707820323506
:1024D00070783B20666F6E742D7765696768743A13
:1024E000203630303B20746578742D616C69676EDE
:1024F0003A2063656E7465723B20636F6C6F723A4D
:1025000020236161613B20626F726465723A203101
:10251000707820736F6C696420236464643B20626C
:1025200061636B67726F756E643A20236631663142
:1025300066313B20626F726465722D7261646975E9
:10254000733A2033707820337078203020303B206D
:102550007D2E74616273206C6162656C3A6265669F
:102560006F7265207B20666F6E742D66616D696C7D
:10257000793A20666F6E74617765736F6D653B2085
:10258000666F6E742D7765696768743A206E6F7236
:102590006D616C3B206D617267696E2D7269676851
:1025A000743A20313070783B7D2E74616273206CF8
:1025B0006162656C3A686F766572207B636F6C6FE1
:1025C000723A20233838383B637572736F723A2041
:1025D000706F696E7465723B7D2E746162732069E1
:1025E0006E7075743A636865636B6564202B206C4C
:1025F0006162656C207B20636F6C6F723A202335BB
:1026000035353B20626F726465723A2031707820F4
:10261000736F6C696420236464643B20626F72642E
:1026200065722D746F703A2031707820736F6C6909
:102630006420233030393933333B20626F72646554
:10264000722D626F74746F6D3A2031707820736FE1
:102650006C696420236666663B206261636B677207
:102660006F756E643A20236666663B7D23746162F3
:10267000313A636865636B6564207E2023636F6E07
:1026800074656E74312C2023746162323A6368651C
:10269000636B6564207E2023636F6E74656E743295
:1026A0002C2023746162333A636865636B65642030
:1026B0007E2023636F6E74656E74332C20237461E7
:1026C00062343A636865636B6564207E2023636FC0
:1026D0006E74656E7434207B646973706C61793AD2
:1026E00020626C6F636B3B7D406D65646961207334
:1026F000637265656E20616E6420286D61782D7748
:10270000696474683A20343030707829207B2E74E4
:10271000616273206C6162656C207B7061646469C6
:102720006E673A20313570783B7D7D0D0A3C2F7302
:1027300074796C653E0D0A0D0A3C2F686561643E34
:10274000203C626F64793E3C64697620636C6173FF
:10275000733D2274616273223E3C696E7075742011
:1027600069643D22746162312220747970653D2272
:10277000726164696F22206E616D653D22746162D1
:10278000732220636865636B65643E3C6C616265BF
:102790006C20666F723D227461623122207469740C
:1027A0006C653D22696E666F223E696E666F3C2FD6
:1027B0006C6162656C3E3C696E7075742069643D45
:1027C00022746162322220747970653D22726164E4
:1027D000696F22206E616D653D2274616273223ED5
:1027E0003C6C6162656C20666F723D22746162327E
:1027F00022207469746C653D227374617475732250
:102800003E7374617475733C2F6C6162656C3E3C01
:10281000696E7075742069643D2274616233222090
:10282000747970653D22726164696F22206E616DFA
:10283000653D2274616273223E3C6C6162656C206E
:10284000666F723D227461623322207469746C6514
:102850003D2273657474696E6773223E7365747488
:10286000696E67733C2F6C6162656C3E3C73656397
:1028700074696F6E2069643D22636F6E74656E7457
:1028800031223E3C703E636F6E74656E74313C2F36
:10289000703E3C2F73656374696F6E3E3C73656375
:1028A00074696F6E2069643D22636F6E74656E7427
:1028B00032223E3C703E636F6E74656E74323C2F04
:1028C000703E3C2F73656374696F6E3E3C73656345
:1028D00074696F6E2069643D22636F6E74656E74F7
:1028E00033223E3C703E636F6E74656E74333C2FD2
:1028F000703E003C2F626F64793E3C2F68746D6CB3
:102900003E0D0A00485454502F312E3120323030C1
:10291000204F4B0D0A446174653A205765642C20A2
:1029200031312046656220323030392031313A323F
:10293000303A35390D0A0D0A3C68746D6C3E203C06
:10294000686561643E3C7469746C653E41494953F5
:102950002041534B55453C2F7469746C653E3C2FA8
:10296000686561643E3C626F64793E73696D706C4A
:10297000652068746D6C3C2F626F64793E3C2F68F3
:10298000746D6C3E0000485454502F312E31203469
:102990003034204E6F7420466F756E640D0A00004F
:1029A00000000000C027090090051000C05C150061
:1029B000F0B31A00200B2000009F2400E032290011
:1029C000C0C62D0050973100E067350070383900DF
:1029D00000093D004016400080234300C0304600FF
:1029E0003031323334353637383961626364656685
:1029F0006768696A6B6C6D6E6F70717273747576EF
:102A00007778797A00000000002020202020202004
:102A1000202028282828282020202020202020208E
:102A2000202020202020202020881010101010109E
:102A300010101010101010101004040404040404EA
:102A40000404041010101010101041414141414184
:102A50000101010101010101010101010101010166
:102A60000101010110101010101042424242424276
:102A70000202020202020202020202020202020236
:102A800002020202101010102000000000000000DE
:102A90000000000000000000000000000000000036
:102AA0000000000000000000000000000000000026
:102AB0000000000000000000000000000000000016
:102AC0000000000000000000000000000000000006
:102AD00000000000000000000000000000000000F6
:102AE00000000000000000000000000000000000E6
:102AF00000000000000000000000000000000000D6
:102B00000000000000000000000000004300000082
:102B1000F8B5C046F8BC08BC9E4670475D1E000074
:0C2B2000F8B5C046F8BC08BC9E467047E3
:082B2C0038EAFF7F0100000000
:102B340001000000082A000000000000F402001058
:102B44005C030010C403001000000000000000003B
:102B54000000000000000000000000000000000071
:102B64000000000000000000000000000C2B00002A
:102B74000000000000000000000000000000000051
:102B84000000000000000000000000000000000041
:102B94000000000000000000000000000000000031
:102BA4000000000000000000000000000000000021
:102BB4000000000000000000000000000000000011
:102BC4000000000000000000000000000000000001
:102BD40000000000000000000000000000000000F1
:102BE40001000000000000000E33CDAB34126DE68E
:102BF400ECDE05000B0000000000000000000000F7
:102C040000000000000000000000000000000000C0
:102C140000000000000000000000000000000000B0
:102C240000000000000000000000000000000000A0
:102C34000000000000000000000000000000000090
:042F64000800001051
:0400000300000103F5
:00000001FF
